01REMESSA01COBRANCA       4262973757502000135                               748SICREDI        20170202        0000001                                                                                                                                                                                                                                                                                 2.00000001
1AAA            AAA                            172000011      20170202 N B        00000000000000            0110720220442202170000000006100         AN020217000000000000000000202170000000000000000000000000000000000000001000001072022044VERIQUEL SCARLOT PIRES                  AV BRASIL, 099                          00000000000 9534000000000                                                       000002
1AAA            AAA                            172000020      20170202 N B        00000000000000            0110720220442203170000000006100         AN020217000000000000000000202170000000000000000000000000000000000000001000001072022044VERIQUEL SCARLOT PIRES                  AV BRASIL, 099                          00000000000 9534000000000                                                       000003
1AAA            AAA                            172000038      20170202 N B        00000000000000            0110720220442204170000000006100         AN020217000000000000000000202170000000000000000000000000000000000000001000001072022044VERIQUEL SCARLOT PIRES                  AV BRASIL, 099                          00000000000 9534000000000                                                       000004
1AAA            AAA                            172000046      20170202 N B        00000000000000            0110720220442205170000000006100         AN020217000000000000000000202170000000000000000000000000000000000000001000001072022044VERIQUEL SCARLOT PIRES                  AV BRASIL, 099                          00000000000 9534000000000                                                       000005
1AAA            AAA                            172000054      20170202 N B        00000000000000            0110720220442206170000000006100         AN020217000000000000000000202170000000000000000000000000000000000000001000001072022044VERIQUEL SCARLOT PIRES                  AV BRASIL, 099                          00000000000 9534000000000                                                       000006
1AAA            AAA                            172000062      20170202 N B        00000000000000            0110720220442207170000000006100         AN020217000000000000000000202170000000000000000000000000000000000000001000001072022044VERIQUEL SCARLOT PIRES                  AV BRASIL, 099                          00000000000 9534000000000                                                       000007
1AAA            AAA                            172000070      20170202 N B        00000000000000            0110720220442208170000000006100         AN020217000000000000000000202170000000000000000000000000000000000000001000001072022044VERIQUEL SCARLOT PIRES                  AV BRASIL, 099                          00000000000 9534000000000                                                       000008
1AAA            AAA                            172000089      20170202 N B        00000000000000            0110720220442209170000000006100         AN020217000000000000000000202170000000000000000000000000000000000000001000001072022044VERIQUEL SCARLOT PIRES                  AV BRASIL, 099                          00000000000 9534000000000                                                       000009
1AAA            AAA                            172000097      20170202 N B        00000000000000            0106733910782002170000000016500         AN020217000000000000000000202170000000000000000000000000000000000000001000000673391078EDUARDA SOUZA DE ALMEIDA                LINHA SENADOR OTAVIANO, 1960            00000000000 9534000000000                                                       000010
1AAA            AAA                            172000100      20170202 N B        00000000000000            0106733910782003170000000016500         AN020217000000000000000000202170000000000000000000000000000000000000001000000673391078EDUARDA SOUZA DE ALMEIDA                LINHA SENADOR OTAVIANO, 1960            00000000000 9534000000000                                                       000011
1AAA            AAA                            172000119      20170202 N B        00000000000000            0106733910782004170000000016500         AN020217000000000000000000202170000000000000000000000000000000000000001000000673391078EDUARDA SOUZA DE ALMEIDA                LINHA SENADOR OTAVIANO, 1960            00000000000 9534000000000                                                       000012
1AAA            AAA                            172000127      20170202 N B        00000000000000            0106733910782005170000000016500         AN020217000000000000000000202170000000000000000000000000000000000000001000000673391078EDUARDA SOUZA DE ALMEIDA                LINHA SENADOR OTAVIANO, 1960            00000000000 9534000000000                                                       000013
1AAA            AAA                            172000135      20170202 N B        00000000000000            0106733910782006170000000016500         AN020217000000000000000000202170000000000000000000000000000000000000001000000673391078EDUARDA SOUZA DE ALMEIDA                LINHA SENADOR OTAVIANO, 1960            00000000000 9534000000000                                                       000014
1AAA            AAA                            172000143      20170202 N B        00000000000000            0106733910782007170000000016500         AN020217000000000000000000202170000000000000000000000000000000000000001000000673391078EDUARDA SOUZA DE ALMEIDA                LINHA SENADOR OTAVIANO, 1960            00000000000 9534000000000                                                       000015
1AAA            AAA                            172000151      20170202 N B        00000000000000            0106733910782008170000000016500         AN020217000000000000000000202170000000000000000000000000000000000000001000000673391078EDUARDA SOUZA DE ALMEIDA                LINHA SENADOR OTAVIANO, 1960            00000000000 9534000000000                                                       000016
1AAA            AAA                            172000160      20170202 N B        00000000000000            0106733910782009170000000016500         AN020217000000000000000000202170000000000000000000000000000000000000001000000673391078EDUARDA SOUZA DE ALMEIDA                LINHA SENADOR OTAVIANO, 1960            00000000000 9534000000000                                                       000017
1AAA            AAA                            172000178      20170202 N B        00000000000000            0106733910782010170000000016500         AN020217000000000000000000202170000000000000000000000000000000000000001000000673391078EDUARDA SOUZA DE ALMEIDA                LINHA SENADOR OTAVIANO, 1960            00000000000 9534000000000                                                       000018
1AAA            AAA                            172000186      20170202 N B        00000000000000            0103941610092002170000000015800         AN020217000000000000000000202170000000000000000000000000000000000000001000000394161009FERNANDO APARECIDO JANTSCH              RUA CASTRO ALVES , 019                  00000000000 9534000000000                                                       000019
1AAA            AAA                            172000194      20170202 N B        00000000000000            0103941610092003170000000015800         AN020217000000000000000000202170000000000000000000000000000000000000001000000394161009FERNANDO APARECIDO JANTSCH              RUA CASTRO ALVES , 019                  00000000000 9534000000000                                                       000020
1AAA            AAA                            172000208      20170202 N B        00000000000000            0103941610092004170000000015800         AN020217000000000000000000202170000000000000000000000000000000000000001000000394161009FERNANDO APARECIDO JANTSCH              RUA CASTRO ALVES , 019                  00000000000 9534000000000                                                       000021
1AAA            AAA                            172000216      20170202 N B        00000000000000            0103941610092005170000000015800         AN020217000000000000000000202170000000000000000000000000000000000000001000000394161009FERNANDO APARECIDO JANTSCH              RUA CASTRO ALVES , 019                  00000000000 9534000000000                                                       000022
1AAA            AAA                            172000224      20170202 N B        00000000000000            0103941610092006170000000015800         AN020217000000000000000000202170000000000000000000000000000000000000001000000394161009FERNANDO APARECIDO JANTSCH              RUA CASTRO ALVES , 019                  00000000000 9534000000000                                                       000023
1AAA            AAA                            172000232      20170202 N B        00000000000000            0103941610092007170000000015800         AN020217000000000000000000202170000000000000000000000000000000000000001000000394161009FERNANDO APARECIDO JANTSCH              RUA CASTRO ALVES , 019                  00000000000 9534000000000                                                       000024
1AAA            AAA                            172000240      20170202 N B        00000000000000            0103941610092008170000000015800         AN020217000000000000000000202170000000000000000000000000000000000000001000000394161009FERNANDO APARECIDO JANTSCH              RUA CASTRO ALVES , 019                  00000000000 9534000000000                                                       000025
1AAA            AAA                            172000259      20170202 N B        00000000000000            0103941610092009170000000015800         AN020217000000000000000000202170000000000000000000000000000000000000001000000394161009FERNANDO APARECIDO JANTSCH              RUA CASTRO ALVES , 019                  00000000000 9534000000000                                                       000026
1AAA            AAA                            172000267      20170202 N B        00000000000000            0103941610092010170000000015800         AN020217000000000000000000202170000000000000000000000000000000000000001000000394161009FERNANDO APARECIDO JANTSCH              RUA CASTRO ALVES , 019                  00000000000 9534000000000                                                       000027
1AAA            AAA                            172000275      20170202 N B        00000000000000            0126415420722002170000000017600         AN020217000000000000000000202170000000000000000000000000000000000000001000002641542072LUIZ ROTTINI                            LINHA SILVA JARDIM , 000                00000000000 9534000000000                                                       000028
1AAA            AAA                            172000283      20170202 N B        00000000000000            0126415420722003170000000017600         AN020217000000000000000000202170000000000000000000000000000000000000001000002641542072LUIZ ROTTINI                            LINHA SILVA JARDIM , 000                00000000000 9534000000000                                                       000029
1AAA            AAA                            172000291      20170202 N B        00000000000000            0126415420722004170000000017600         AN020217000000000000000000202170000000000000000000000000000000000000001000002641542072LUIZ ROTTINI                            LINHA SILVA JARDIM , 000                00000000000 9534000000000                                                       000030
1AAA            AAA                            172000305      20170202 N B        00000000000000            0126415420722005170000000017600         AN020217000000000000000000202170000000000000000000000000000000000000001000002641542072LUIZ ROTTINI                            LINHA SILVA JARDIM , 000                00000000000 9534000000000                                                       000031
1AAA            AAA                            172000313      20170202 N B        00000000000000            0126415420722006170000000017600         AN020217000000000000000000202170000000000000000000000000000000000000001000002641542072LUIZ ROTTINI                            LINHA SILVA JARDIM , 000                00000000000 9534000000000                                                       000032
1AAA            AAA                            172000321      20170202 N B        00000000000000            0126415420722007170000000017600         AN020217000000000000000000202170000000000000000000000000000000000000001000002641542072LUIZ ROTTINI                            LINHA SILVA JARDIM , 000                00000000000 9534000000000                                                       000033
1AAA            AAA                            172000330      20170202 N B        00000000000000            0126415420722008170000000017600         AN020217000000000000000000202170000000000000000000000000000000000000001000002641542072LUIZ ROTTINI                            LINHA SILVA JARDIM , 000                00000000000 9534000000000                                                       000034
1AAA            AAA                            172000348      20170202 N B        00000000000000            0126415420722009170000000017600         AN020217000000000000000000202170000000000000000000000000000000000000001000002641542072LUIZ ROTTINI                            LINHA SILVA JARDIM , 000                00000000000 9534000000000                                                       000035
1AAA            AAA                            172000356      20170202 N B        00000000000000            0109860230601503170000000006800         AN020217000000000000000000202170000000000000000000000000000000000000001000000986023060CRISTINA ELSENBACH                      RUA PINHEIRO MACHADO, 584               00000000000 9534000000000                                                       000036
1AAA            AAA                            172000364      20170202 N B        00000000000000            0109860230601504170000000006800         AN020217000000000000000000202170000000000000000000000000000000000000001000000986023060CRISTINA ELSENBACH                      RUA PINHEIRO MACHADO, 584               00000000000 9534000000000                                                       000037
1AAA            AAA                            172000372      20170202 N B        00000000000000            0109860230601505170000000006800         AN020217000000000000000000202170000000000000000000000000000000000000001000000986023060CRISTINA ELSENBACH                      RUA PINHEIRO MACHADO, 584               00000000000 9534000000000                                                       000038
1AAA            AAA                            172000380      20170202 N B        00000000000000            0109860230601506170000000006800         AN020217000000000000000000202170000000000000000000000000000000000000001000000986023060CRISTINA ELSENBACH                      RUA PINHEIRO MACHADO, 584               00000000000 9534000000000                                                       000039
1AAA            AAA                            172000399      20170202 N B        00000000000000            0109860230601507170000000006800         AN020217000000000000000000202170000000000000000000000000000000000000001000000986023060CRISTINA ELSENBACH                      RUA PINHEIRO MACHADO, 584               00000000000 9534000000000                                                       000040
1AAA            AAA                            172000402      20170202 N B        00000000000000            0109860230601508170000000006800         AN020217000000000000000000202170000000000000000000000000000000000000001000000986023060CRISTINA ELSENBACH                      RUA PINHEIRO MACHADO, 584               00000000000 9534000000000                                                       000041
1AAA            AAA                            172000410      20170202 N B        00000000000000            0109860230601509170000000006800         AN020217000000000000000000202170000000000000000000000000000000000000001000000986023060CRISTINA ELSENBACH                      RUA PINHEIRO MACHADO, 584               00000000000 9534000000000                                                       000042
1AAA            AAA                            172000429      20170202 N B        00000000000000            0109860230601510170000000006800         AN020217000000000000000000202170000000000000000000000000000000000000001000000986023060CRISTINA ELSENBACH                      RUA PINHEIRO MACHADO, 584               00000000000 9534000000000                                                       000043
1AAA            AAA                            172000437      20170202 N B        00000000000000            0162726920720203170000000012500         AN020217000000000000000000202170000000000000000000000000000000000000001000016272692072HENRIQUE VIGOLO                         LINHA SAO SEBASTIAO, 000                00000000000 9530500000000                                                       000044
1AAA            AAA                            172000445      20170202 N B        00000000000000            0162726920720204170000000012500         AN020217000000000000000000202170000000000000000000000000000000000000001000016272692072HENRIQUE VIGOLO                         LINHA SAO SEBASTIAO, 000                00000000000 9530500000000                                                       000045
1AAA            AAA                            172000453      20170202 N B        00000000000000            0162726920720205170000000012500         AN020217000000000000000000202170000000000000000000000000000000000000001000016272692072HENRIQUE VIGOLO                         LINHA SAO SEBASTIAO, 000                00000000000 9530500000000                                                       000046
1AAA            AAA                            172000461      20170202 N B        00000000000000            0162726920720206170000000012500         AN020217000000000000000000202170000000000000000000000000000000000000001000016272692072HENRIQUE VIGOLO                         LINHA SAO SEBASTIAO, 000                00000000000 9530500000000                                                       000047
1AAA            AAA                            172000470      20170202 N B        00000000000000            0162726920720207170000000012500         AN020217000000000000000000202170000000000000000000000000000000000000001000016272692072HENRIQUE VIGOLO                         LINHA SAO SEBASTIAO, 000                00000000000 9530500000000                                                       000048
1AAA            AAA                            172000488      20170202 N B        00000000000000            0162726920720208170000000012500         AN020217000000000000000000202170000000000000000000000000000000000000001000016272692072HENRIQUE VIGOLO                         LINHA SAO SEBASTIAO, 000                00000000000 9530500000000                                                       000049
1AAA            AAA                            172000496      20170202 N B        00000000000000            0162726920720209170000000012500         AN020217000000000000000000202170000000000000000000000000000000000000001000016272692072HENRIQUE VIGOLO                         LINHA SAO SEBASTIAO, 000                00000000000 9530500000000                                                       000050
1AAA            AAA                            172000500      20170202 N B        00000000000000            0162726920720210170000000012500         AN020217000000000000000000202170000000000000000000000000000000000000001000016272692072HENRIQUE VIGOLO                         LINHA SAO SEBASTIAO, 000                00000000000 9530500000000                                                       000051
1AAA            AAA                            172000518      20170202 N B        00000000000000            0116464150511003170000000025180         AN020217000000000000000000202170000000000000000000000000000000000000001000001646415051TALIA DALLAGNOL GREGORIO                RUA SANTO ANTONIO, 031                  00000000000 9534000000000                                                       000052
1AAA            AAA                            172000526      20170202 N B        00000000000000            0116464150511004170000000025180         AN020217000000000000000000202170000000000000000000000000000000000000001000001646415051TALIA DALLAGNOL GREGORIO                RUA SANTO ANTONIO, 031                  00000000000 9534000000000                                                       000053
1AAA            AAA                            172000534      20170202 N B        00000000000000            0116464150511005170000000025180         AN020217000000000000000000202170000000000000000000000000000000000000001000001646415051TALIA DALLAGNOL GREGORIO                RUA SANTO ANTONIO, 031                  00000000000 9534000000000                                                       000054
1AAA            AAA                            172000542      20170202 N B        00000000000000            0116464150511006170000000025180         AN020217000000000000000000202170000000000000000000000000000000000000001000001646415051TALIA DALLAGNOL GREGORIO                RUA SANTO ANTONIO, 031                  00000000000 9534000000000                                                       000055
1AAA            AAA                            172000550      20170202 N B        00000000000000            0116464150511007170000000025180         AN020217000000000000000000202170000000000000000000000000000000000000001000001646415051TALIA DALLAGNOL GREGORIO                RUA SANTO ANTONIO, 031                  00000000000 9534000000000                                                       000056
1AAA            AAA                            172000569      20170202 N B        00000000000000            0116464150511008170000000025180         AN020217000000000000000000202170000000000000000000000000000000000000001000001646415051TALIA DALLAGNOL GREGORIO                RUA SANTO ANTONIO, 031                  00000000000 9534000000000                                                       000057
1AAA            AAA                            172000577      20170202 N B        00000000000000            0116464150511009170000000025180         AN020217000000000000000000202170000000000000000000000000000000000000001000001646415051TALIA DALLAGNOL GREGORIO                RUA SANTO ANTONIO, 031                  00000000000 9534000000000                                                       000058
1AAA            AAA                            172000585      20170202 N B        00000000000000            0116464150511010170000000025180         AN020217000000000000000000202170000000000000000000000000000000000000001000001646415051TALIA DALLAGNOL GREGORIO                RUA SANTO ANTONIO, 031                  00000000000 9534000000000                                                       000059
1AAA            AAA                            172000593      20170202 N B        00000000000000            0106733910780203170000000005500         AN020217000000000000000000202170000000000000000000000000000000000000001000000673391078EDUARDA SOUZA DE ALMEIDA                LINHA SENADOR OTAVIANO, 1960            00000000000 9534000000000                                                       000060
1AAA            AAA                            172000607      20170202 N B        00000000000000            0106733910780204170000000005500         AN020217000000000000000000202170000000000000000000000000000000000000001000000673391078EDUARDA SOUZA DE ALMEIDA                LINHA SENADOR OTAVIANO, 1960            00000000000 9534000000000                                                       000061
1AAA            AAA                            172000615      20170202 N B        00000000000000            0109326130631502170000000015000         AN020217000000000000000000202170000000000000000000000000000000000000001000000932613063FELIPE FERREIRA                         RUA ADOFO FERRON, 055                   00000000000 9534000000000                                                       000062
1AAA            AAA                            172000623      20170202 N B        00000000000000            0109326130631503170000000015000         AN020217000000000000000000202170000000000000000000000000000000000000001000000932613063FELIPE FERREIRA                         RUA ADOFO FERRON, 055                   00000000000 9534000000000                                                       000063
1AAA            AAA                            172000631      20170202 N B        00000000000000            0109326130631504170000000015000         AN020217000000000000000000202170000000000000000000000000000000000000001000000932613063FELIPE FERREIRA                         RUA ADOFO FERRON, 055                   00000000000 9534000000000                                                       000064
1AAA            AAA                            172000640      20170202 N B        00000000000000            0109326130631505170000000015000         AN020217000000000000000000202170000000000000000000000000000000000000001000000932613063FELIPE FERREIRA                         RUA ADOFO FERRON, 055                   00000000000 9534000000000                                                       000065
1AAA            AAA                            172000658      20170202 N B        00000000000000            0109326130631506170000000015000         AN020217000000000000000000202170000000000000000000000000000000000000001000000932613063FELIPE FERREIRA                         RUA ADOFO FERRON, 055                   00000000000 9534000000000                                                       000066
1AAA            AAA                            172000666      20170202 N B        00000000000000            0109326130631507170000000015000         AN020217000000000000000000202170000000000000000000000000000000000000001000000932613063FELIPE FERREIRA                         RUA ADOFO FERRON, 055                   00000000000 9534000000000                                                       000067
1AAA            AAA                            172000674      20170202 N B        00000000000000            0109326130631508170000000015000         AN020217000000000000000000202170000000000000000000000000000000000000001000000932613063FELIPE FERREIRA                         RUA ADOFO FERRON, 055                   00000000000 9534000000000                                                       000068
1AAA            AAA                            172000682      20170202 N B        00000000000000            0109326130631509170000000015000         AN020217000000000000000000202170000000000000000000000000000000000000001000000932613063FELIPE FERREIRA                         RUA ADOFO FERRON, 055                   00000000000 9534000000000                                                       000069
1AAA            AAA                            172000690      20170202 N B        00000000000000            0109326130631510170000000015000         AN020217000000000000000000202170000000000000000000000000000000000000001000000932613063FELIPE FERREIRA                         RUA ADOFO FERRON, 055                   00000000000 9534000000000                                                       000070
1AAA            AAA                            172000704      20170202 N B        00000000000000            0101600650031502170000000010400         AN020217000000000000000000202170000000000000000000000000000000000000001000000160065003VALQUIRIA OMIZZOLLO                     LINHA SENADOR RAMIRO, 075               00000000000 9534000000000                                                       000071
1AAA            AAA                            172000712      20170202 N B        00000000000000            0101600650031503170000000010400         AN020217000000000000000000202170000000000000000000000000000000000000001000000160065003VALQUIRIA OMIZZOLLO                     LINHA SENADOR RAMIRO, 075               00000000000 9534000000000                                                       000072
1AAA            AAA                            172000720      20170202 N B        00000000000000            0101600650031504170000000010400         AN020217000000000000000000202170000000000000000000000000000000000000001000000160065003VALQUIRIA OMIZZOLLO                     LINHA SENADOR RAMIRO, 075               00000000000 9534000000000                                                       000073
1AAA            AAA                            172000739      20170202 N B        00000000000000            0101600650031505170000000010400         AN020217000000000000000000202170000000000000000000000000000000000000001000000160065003VALQUIRIA OMIZZOLLO                     LINHA SENADOR RAMIRO, 075               00000000000 9534000000000                                                       000074
1AAA            AAA                            172000747      20170202 N B        00000000000000            0162851100342802170000000011300         AN020217000000000000000000202170000000000000000000000000000000000000001000036285110034WALDIR BRESOLIN                         LINHA BEIRA RIO, 000                    00000000000 9536500000000                                                       000075
1AAA            AAA                            172000755      20170202 N B        00000000000000            0162851100343003170000000011300         AN020217000000000000000000202170000000000000000000000000000000000000001000036285110034WALDIR BRESOLIN                         LINHA BEIRA RIO, 000                    00000000000 9536500000000                                                       000076
1AAA            AAA                            172000763      20170202 N B        00000000000000            0152334280911502170000000006500         AN020217000000000000000000202170000000000000000000000000000000000000001000075233428091LUCIANE KAZMIRSKI TESSARI               LINHA SENADOR OTAVIANO/ACS V ALEGRE, 75000000000000 9534000000000                                                       000077
1AAA            AAA                            172000771      20170202 N B        00000000000000            0152334280911503170000000006500         AN020217000000000000000000202170000000000000000000000000000000000000001000075233428091LUCIANE KAZMIRSKI TESSARI               LINHA SENADOR OTAVIANO/ACS V ALEGRE, 75000000000000 9534000000000                                                       000078
1AAA            AAA                            172000780      20170202 N B        00000000000000            0152334280911504170000000006500         AN020217000000000000000000202170000000000000000000000000000000000000001000075233428091LUCIANE KAZMIRSKI TESSARI               LINHA SENADOR OTAVIANO/ACS V ALEGRE, 75000000000000 9534000000000                                                       000079
1AAA            AAA                            172000798      20170202 N B        00000000000000            0152334280911505170000000006500         AN020217000000000000000000202170000000000000000000000000000000000000001000075233428091LUCIANE KAZMIRSKI TESSARI               LINHA SENADOR OTAVIANO/ACS V ALEGRE, 75000000000000 9534000000000                                                       000080
1AAA            AAA                            172000801      20170202 N B        00000000000000            0152334280911506170000000006500         AN020217000000000000000000202170000000000000000000000000000000000000001000075233428091LUCIANE KAZMIRSKI TESSARI               LINHA SENADOR OTAVIANO/ACS V ALEGRE, 75000000000000 9534000000000                                                       000081
1AAA            AAA                            172000810      20170202 N B        00000000000000            0152334280911507170000000006500         AN020217000000000000000000202170000000000000000000000000000000000000001000075233428091LUCIANE KAZMIRSKI TESSARI               LINHA SENADOR OTAVIANO/ACS V ALEGRE, 75000000000000 9534000000000                                                       000082
1AAA            AAA                            172000828      20170202 N B        00000000000000            0152334280911508170000000006500         AN020217000000000000000000202170000000000000000000000000000000000000001000075233428091LUCIANE KAZMIRSKI TESSARI               LINHA SENADOR OTAVIANO/ACS V ALEGRE, 75000000000000 9534000000000                                                       000083
1AAA            AAA                            172000836      20170202 N B        00000000000000            0152334280911509170000000006500         AN020217000000000000000000202170000000000000000000000000000000000000001000075233428091LUCIANE KAZMIRSKI TESSARI               LINHA SENADOR OTAVIANO/ACS V ALEGRE, 75000000000000 9534000000000                                                       000084
1AAA            AAA                            172000844      20170202 N B        00000000000000            0172668160681003170000000009400         AN020217000000000000000000202170000000000000000000000000000000000000001000057266816068JOSE LUIS LEMOS                         RUA DOM PEDRO I, 085                    00000000000 9536500000000                                                       000085
1AAA            AAA                            172000852      20170202 N B        00000000000000            0172668160681004170000000009400         AN020217000000000000000000202170000000000000000000000000000000000000001000057266816068JOSE LUIS LEMOS                         RUA DOM PEDRO I, 085                    00000000000 9536500000000                                                       000086
1AAA            AAA                            172000860      20170202 N B        00000000000000            0172668160681005170000000009400         AN020217000000000000000000202170000000000000000000000000000000000000001000057266816068JOSE LUIS LEMOS                         RUA DOM PEDRO I, 085                    00000000000 9536500000000                                                       000087
1AAA            AAA                            172000879      20170202 N B        00000000000000            0172668160681006170000000009400         AN020217000000000000000000202170000000000000000000000000000000000000001000057266816068JOSE LUIS LEMOS                         RUA DOM PEDRO I, 085                    00000000000 9536500000000                                                       000088
1AAA            AAA                            172000887      20170202 N B        00000000000000            0172668160681007170000000009400         AN020217000000000000000000202170000000000000000000000000000000000000001000057266816068JOSE LUIS LEMOS                         RUA DOM PEDRO I, 085                    00000000000 9536500000000                                                       000089
1AAA            AAA                            172000895      20170202 N B        00000000000000            0172668160681008170000000009400         AN020217000000000000000000202170000000000000000000000000000000000000001000057266816068JOSE LUIS LEMOS                         RUA DOM PEDRO I, 085                    00000000000 9536500000000                                                       000090
1AAA            AAA                            172000909      20170202 N B        00000000000000            0172668160681009170000000009400         AN020217000000000000000000202170000000000000000000000000000000000000001000057266816068JOSE LUIS LEMOS                         RUA DOM PEDRO I, 085                    00000000000 9536500000000                                                       000091
1AAA            AAA                            172000917      20170202 N B        00000000000000            0133826820870204170000000015800         AN020217000000000000000000202170000000000000000000000000000000000000001000083382682087GENAINE RIGO                            RUA GONCALVES DIAS, 025                 00000000000 9534000000000                                                       000092
1AAA            AAA                            172000925      20170202 N B        00000000000000            0133826820870205170000000015800         AN020217000000000000000000202170000000000000000000000000000000000000001000083382682087GENAINE RIGO                            RUA GONCALVES DIAS, 025                 00000000000 9534000000000                                                       000093
1AAA            AAA                            172000933      20170202 N B        00000000000000            0133826820870206170000000015800         AN020217000000000000000000202170000000000000000000000000000000000000001000083382682087GENAINE RIGO                            RUA GONCALVES DIAS, 025                 00000000000 9534000000000                                                       000094
1AAA            AAA                            172000941      20170202 N B        00000000000000            0133826820870207170000000015800         AN020217000000000000000000202170000000000000000000000000000000000000001000083382682087GENAINE RIGO                            RUA GONCALVES DIAS, 025                 00000000000 9534000000000                                                       000095
1AAA            AAA                            172000950      20170202 N B        00000000000000            0133826820870208170000000015800         AN020217000000000000000000202170000000000000000000000000000000000000001000083382682087GENAINE RIGO                            RUA GONCALVES DIAS, 025                 00000000000 9534000000000                                                       000096
1AAA            AAA                            172000968      20170202 N B        00000000000000            0113554560961502170000000011388         AN020217000000000000000000202170000000000000000000000000000000000000001000001355456096LUCAS MINOZZI                           LINHA CACADOR , 000                     00000000000 9534000000000                                                       000097
1AAA            AAA                            172000976      20170202 N B        00000000000000            0113554560961503170000000011388         AN020217000000000000000000202170000000000000000000000000000000000000001000001355456096LUCAS MINOZZI                           LINHA CACADOR , 000                     00000000000 9534000000000                                                       000098
1AAA            AAA                            172000984      20170202 N B        00000000000000            0113554560961504170000000011388         AN020217000000000000000000202170000000000000000000000000000000000000001000001355456096LUCAS MINOZZI                           LINHA CACADOR , 000                     00000000000 9534000000000                                                       000099
1AAA            AAA                            172000992      20170202 N B        00000000000000            0113554560961505170000000011388         AN020217000000000000000000202170000000000000000000000000000000000000001000001355456096LUCAS MINOZZI                           LINHA CACADOR , 000                     00000000000 9534000000000                                                       000100
1AAA            AAA                            172001000      20170202 N B        00000000000000            0113554560961506170000000011388         AN020217000000000000000000202170000000000000000000000000000000000000001000001355456096LUCAS MINOZZI                           LINHA CACADOR , 000                     00000000000 9534000000000                                                       000101
1AAA            AAA                            172001018      20170202 N B        00000000000000            0113554560961507170000000011388         AN020217000000000000000000202170000000000000000000000000000000000000001000001355456096LUCAS MINOZZI                           LINHA CACADOR , 000                     00000000000 9534000000000                                                       000102
1AAA            AAA                            172001026      20170202 N B        00000000000000            0113554560961508170000000011388         AN020217000000000000000000202170000000000000000000000000000000000000001000001355456096LUCAS MINOZZI                           LINHA CACADOR , 000                     00000000000 9534000000000                                                       000103
1AAA            AAA                            172001034      20170202 N B        00000000000000            0113554560961509170000000011388         AN020217000000000000000000202170000000000000000000000000000000000000001000001355456096LUCAS MINOZZI                           LINHA CACADOR , 000                     00000000000 9534000000000                                                       000104
1AAA            AAA                            172001042      20170202 N B        00000000000000            0113554560961510170000000011388         AN020217000000000000000000202170000000000000000000000000000000000000001000001355456096LUCAS MINOZZI                           LINHA CACADOR , 000                     00000000000 9534000000000                                                       000105
1AAA            AAA                            172001050      20170202 N B        00000000000000            0130374610631502170000000011508         AN020217000000000000000000202170000000000000000000000000000000000000001000003037461063ANDRE BENELLI                           RUA EMA FRATINI DE CONTO, 030           00000000000 9534000000000                                                       000106
1AAA            AAA                            172001069      20170202 N B        00000000000000            0130374610631503170000000011508         AN020217000000000000000000202170000000000000000000000000000000000000001000003037461063ANDRE BENELLI                           RUA EMA FRATINI DE CONTO, 030           00000000000 9534000000000                                                       000107
1AAA            AAA                            172001077      20170202 N B        00000000000000            0130374610631504170000000011508         AN020217000000000000000000202170000000000000000000000000000000000000001000003037461063ANDRE BENELLI                           RUA EMA FRATINI DE CONTO, 030           00000000000 9534000000000                                                       000108
1AAA            AAA                            172001085      20170202 N B        00000000000000            0130374610631505170000000011508         AN020217000000000000000000202170000000000000000000000000000000000000001000003037461063ANDRE BENELLI                           RUA EMA FRATINI DE CONTO, 030           00000000000 9534000000000                                                       000109
1AAA            AAA                            172001093      20170202 N B        00000000000000            0130374610631506170000000011508         AN020217000000000000000000202170000000000000000000000000000000000000001000003037461063ANDRE BENELLI                           RUA EMA FRATINI DE CONTO, 030           00000000000 9534000000000                                                       000110
1AAA            AAA                            172001107      20170202 N B        00000000000000            0130374610631507170000000011508         AN020217000000000000000000202170000000000000000000000000000000000000001000003037461063ANDRE BENELLI                           RUA EMA FRATINI DE CONTO, 030           00000000000 9534000000000                                                       000111
1AAA            AAA                            172001115      20170202 N B        00000000000000            0130374610631508170000000011508         AN020217000000000000000000202170000000000000000000000000000000000000001000003037461063ANDRE BENELLI                           RUA EMA FRATINI DE CONTO, 030           00000000000 9534000000000                                                       000112
1AAA            AAA                            172001123      20170202 N B        00000000000000            0130374610631509170000000011508         AN020217000000000000000000202170000000000000000000000000000000000000001000003037461063ANDRE BENELLI                           RUA EMA FRATINI DE CONTO, 030           00000000000 9534000000000                                                       000113
1AAA            AAA                            172001131      20170202 N B        00000000000000            0130374610631510170000000011508         AN020217000000000000000000202170000000000000000000000000000000000000001000003037461063ANDRE BENELLI                           RUA EMA FRATINI DE CONTO, 030           00000000000 9534000000000                                                       000114
1AAA            AAA                            172001140      20170202 N B        00000000000000            0109992240181003170000000003588         AN020217000000000000000000202170000000000000000000000000000000000000001000000999224018ELISANGELA NERIS AZAMBUJA               RUA UM LOTE BASSO, 611                  00000000000 9534000000000                                                       000115
1AAA            AAA                            172001158      20170202 N B        00000000000000            0109992240181004170000000003588         AN020217000000000000000000202170000000000000000000000000000000000000001000000999224018ELISANGELA NERIS AZAMBUJA               RUA UM LOTE BASSO, 611                  00000000000 9534000000000                                                       000116
1AAA            AAA                            172001166      20170202 N B        00000000000000            0109992240181005170000000003588         AN020217000000000000000000202170000000000000000000000000000000000000001000000999224018ELISANGELA NERIS AZAMBUJA               RUA UM LOTE BASSO, 611                  00000000000 9534000000000                                                       000117
1AAA            AAA                            172001174      20170202 N B        00000000000000            0109992240181006170000000003588         AN020217000000000000000000202170000000000000000000000000000000000000001000000999224018ELISANGELA NERIS AZAMBUJA               RUA UM LOTE BASSO, 611                  00000000000 9534000000000                                                       000118
1AAA            AAA                            172001182      20170202 N B        00000000000000            0109992240181007170000000003588         AN020217000000000000000000202170000000000000000000000000000000000000001000000999224018ELISANGELA NERIS AZAMBUJA               RUA UM LOTE BASSO, 611                  00000000000 9534000000000                                                       000119
1AAA            AAA                            172001190      20170202 N B        00000000000000            0109992240181008170000000003588         AN020217000000000000000000202170000000000000000000000000000000000000001000000999224018ELISANGELA NERIS AZAMBUJA               RUA UM LOTE BASSO, 611                  00000000000 9534000000000                                                       000120
1AAA            AAA                            172001204      20170202 N B        00000000000000            0109992240181009170000000003588         AN020217000000000000000000202170000000000000000000000000000000000000001000000999224018ELISANGELA NERIS AZAMBUJA               RUA UM LOTE BASSO, 611                  00000000000 9534000000000                                                       000121
1AAA            AAA                            172001212      20170202 N B        00000000000000            0109992240181010170000000003588         AN020217000000000000000000202170000000000000000000000000000000000000001000000999224018ELISANGELA NERIS AZAMBUJA               RUA UM LOTE BASSO, 611                  00000000000 9534000000000                                                       000122
1AAA            AAA                            172001220      20170202 N B        00000000000000            0109992240181011170000000003588         AN020217000000000000000000202170000000000000000000000000000000000000001000000999224018ELISANGELA NERIS AZAMBUJA               RUA UM LOTE BASSO, 611                  00000000000 9534000000000                                                       000123
1AAA            AAA                            172001239      20170202 N B        00000000000000            0101119650551003170000000014500         AN020217000000000000000000202170000000000000000000000000000000000000001000000111965055LENI PIVOTTO CUNICO                     RUA GUILHERME POSTAL, 444               00000000000 9536500000000                                                       000124
1AAA            AAA                            172001247      20170202 N B        00000000000000            0101119650551004170000000014500         AN020217000000000000000000202170000000000000000000000000000000000000001000000111965055LENI PIVOTTO CUNICO                     RUA GUILHERME POSTAL, 444               00000000000 9536500000000                                                       000125
1AAA            AAA                            172001255      20170202 N B        00000000000000            0101119650551005170000000014500         AN020217000000000000000000202170000000000000000000000000000000000000001000000111965055LENI PIVOTTO CUNICO                     RUA GUILHERME POSTAL, 444               00000000000 9536500000000                                                       000126
1AAA            AAA                            172001263      20170202 N B        00000000000000            0101119650551006170000000014500         AN020217000000000000000000202170000000000000000000000000000000000000001000000111965055LENI PIVOTTO CUNICO                     RUA GUILHERME POSTAL, 444               00000000000 9536500000000                                                       000127
1AAA            AAA                            172001271      20170202 N B        00000000000000            0101119650551007170000000014500         AN020217000000000000000000202170000000000000000000000000000000000000001000000111965055LENI PIVOTTO CUNICO                     RUA GUILHERME POSTAL, 444               00000000000 9536500000000                                                       000128
1AAA            AAA                            172001280      20170202 N B        00000000000000            0101119650551008170000000014500         AN020217000000000000000000202170000000000000000000000000000000000000001000000111965055LENI PIVOTTO CUNICO                     RUA GUILHERME POSTAL, 444               00000000000 9536500000000                                                       000129
1AAA            AAA                            172001298      20170202 N B        00000000000000            0101119650551003170000000015000         AN020217000000000000000000202170000000000000000000000000000000000000001000000111965055LENI PIVOTTO CUNICO                     RUA GUILHERME POSTAL, 444               00000000000 9536500000000                                                       000130
1AAA            AAA                            172001301      20170202 N B        00000000000000            0101119650551004170000000015000         AN020217000000000000000000202170000000000000000000000000000000000000001000000111965055LENI PIVOTTO CUNICO                     RUA GUILHERME POSTAL, 444               00000000000 9536500000000                                                       000131
1AAA            AAA                            172001310      20170202 N B        00000000000000            0101119650551005170000000015000         AN020217000000000000000000202170000000000000000000000000000000000000001000000111965055LENI PIVOTTO CUNICO                     RUA GUILHERME POSTAL, 444               00000000000 9536500000000                                                       000132
1AAA            AAA                            172001328      20170202 N B        00000000000000            0101119650551006170000000015000         AN020217000000000000000000202170000000000000000000000000000000000000001000000111965055LENI PIVOTTO CUNICO                     RUA GUILHERME POSTAL, 444               00000000000 9536500000000                                                       000133
1AAA            AAA                            172001336      20170202 N B        00000000000000            0101119650551007170000000015000         AN020217000000000000000000202170000000000000000000000000000000000000001000000111965055LENI PIVOTTO CUNICO                     RUA GUILHERME POSTAL, 444               00000000000 9536500000000                                                       000134
1AAA            AAA                            172001344      20170202 N B        00000000000000            0101119650551008170000000015000         AN020217000000000000000000202170000000000000000000000000000000000000001000000111965055LENI PIVOTTO CUNICO                     RUA GUILHERME POSTAL, 444               00000000000 9536500000000                                                       000135
1AAA            AAA                            172001352      20170202 N B        00000000000000            0101119650551009170000000015000         AN020217000000000000000000202170000000000000000000000000000000000000001000000111965055LENI PIVOTTO CUNICO                     RUA GUILHERME POSTAL, 444               00000000000 9536500000000                                                       000136
1AAA            AAA                            172001360      20170202 N B        00000000000000            0101119650551010170000000015000         AN020217000000000000000000202170000000000000000000000000000000000000001000000111965055LENI PIVOTTO CUNICO                     RUA GUILHERME POSTAL, 444               00000000000 9536500000000                                                       000137
1AAA            AAA                            172001379      20170202 N B        00000000000000            0125197570352002170000000018400         AN020217000000000000000000202170000000000000000000000000000000000000001000002519757035SIDINEI FAVRETTO                        RUA BASSANO DELGRAPA, 704               00000000000 9534000000000                                                       000138
1AAA            AAA                            172001387      20170202 N B        00000000000000            0125197570352003170000000018400         AN020217000000000000000000202170000000000000000000000000000000000000001000002519757035SIDINEI FAVRETTO                        RUA BASSANO DELGRAPA, 704               00000000000 9534000000000                                                       000139
1AAA            AAA                            172001395      20170202 N B        00000000000000            0125197570352004170000000018400         AN020217000000000000000000202170000000000000000000000000000000000000001000002519757035SIDINEI FAVRETTO                        RUA BASSANO DELGRAPA, 704               00000000000 9534000000000                                                       000140
1AAA            AAA                            172001409      20170202 N B        00000000000000            0125197570352005170000000018400         AN020217000000000000000000202170000000000000000000000000000000000000001000002519757035SIDINEI FAVRETTO                        RUA BASSANO DELGRAPA, 704               00000000000 9534000000000                                                       000141
1AAA            AAA                            172001417      20170202 N B        00000000000000            0125197570352006170000000018400         AN020217000000000000000000202170000000000000000000000000000000000000001000002519757035SIDINEI FAVRETTO                        RUA BASSANO DELGRAPA, 704               00000000000 9534000000000                                                       000142
1AAA            AAA                            172001425      20170202 N B        00000000000000            0135991250821003170000000010600         AN020217000000000000000000202170000000000000000000000000000000000000001000003599125082LUCIANE TERNUS                          RUA D, 098                              00000000000 9534000000000                                                       000143
1AAA            AAA                            172001433      20170202 N B        00000000000000            0135991250821004170000000010600         AN020217000000000000000000202170000000000000000000000000000000000000001000003599125082LUCIANE TERNUS                          RUA D, 098                              00000000000 9534000000000                                                       000144
1AAA            AAA                            172001441      20170202 N B        00000000000000            0135991250821005170000000010600         AN020217000000000000000000202170000000000000000000000000000000000000001000003599125082LUCIANE TERNUS                          RUA D, 098                              00000000000 9534000000000                                                       000145
1AAA            AAA                            172001450      20170202 N B        00000000000000            0135991250821006170000000010600         AN020217000000000000000000202170000000000000000000000000000000000000001000003599125082LUCIANE TERNUS                          RUA D, 098                              00000000000 9534000000000                                                       000146
1AAA            AAA                            172001468      20170202 N B        00000000000000            0135991250821007170000000010600         AN020217000000000000000000202170000000000000000000000000000000000000001000003599125082LUCIANE TERNUS                          RUA D, 098                              00000000000 9534000000000                                                       000147
1AAA            AAA                            172001476      20170202 N B        00000000000000            0135991250821008170000000010600         AN020217000000000000000000202170000000000000000000000000000000000000001000003599125082LUCIANE TERNUS                          RUA D, 098                              00000000000 9534000000000                                                       000148
1AAA            AAA                            172001484      20170202 N B        00000000000000            0135991250821009170000000010600         AN020217000000000000000000202170000000000000000000000000000000000000001000003599125082LUCIANE TERNUS                          RUA D, 098                              00000000000 9534000000000                                                       000149
1AAA            AAA                            172001492      20170202 N B        00000000000000            0135991250821010170000000010600         AN020217000000000000000000202170000000000000000000000000000000000000001000003599125082LUCIANE TERNUS                          RUA D, 098                              00000000000 9534000000000                                                       000150
1AAA            AAA                            172001506      20170202 N B        00000000000000            0135991250821011170000000010600         AN020217000000000000000000202170000000000000000000000000000000000000001000003599125082LUCIANE TERNUS                          RUA D, 098                              00000000000 9534000000000                                                       000151
1AAA            AAA                            172001514      20170202 N B        00000000000000            0189317430680503170000000011300         AN020217000000000000000000202170000000000000000000000000000000000000001000068931743068ROMILDE BASOTTI BRISTOT                 RUA BRISTOT, 085                        00000000000 9536500000000                                                       000152
1AAA            AAA                            172001522      20170202 N B        00000000000000            0189317430680504170000000011300         AN020217000000000000000000202170000000000000000000000000000000000000001000068931743068ROMILDE BASOTTI BRISTOT                 RUA BRISTOT, 085                        00000000000 9536500000000                                                       000153
1AAA            AAA                            172001530      20170202 N B        00000000000000            0189317430680505170000000011300         AN020217000000000000000000202170000000000000000000000000000000000000001000068931743068ROMILDE BASOTTI BRISTOT                 RUA BRISTOT, 085                        00000000000 9536500000000                                                       000154
1AAA            AAA                            172001549      20170202 N B        00000000000000            0189317430680506170000000011300         AN020217000000000000000000202170000000000000000000000000000000000000001000068931743068ROMILDE BASOTTI BRISTOT                 RUA BRISTOT, 085                        00000000000 9536500000000                                                       000155
1AAA            AAA                            172001557      20170202 N B        00000000000000            0189317430680507170000000011300         AN020217000000000000000000202170000000000000000000000000000000000000001000068931743068ROMILDE BASOTTI BRISTOT                 RUA BRISTOT, 085                        00000000000 9536500000000                                                       000156
1AAA            AAA                            172001565      20170202 N B        00000000000000            0189317430680508170000000011300         AN020217000000000000000000202170000000000000000000000000000000000000001000068931743068ROMILDE BASOTTI BRISTOT                 RUA BRISTOT, 085                        00000000000 9536500000000                                                       000157
1AAA            AAA                            172001573      20170202 N B        00000000000000            0189317430680509170000000011300         AN020217000000000000000000202170000000000000000000000000000000000000001000068931743068ROMILDE BASOTTI BRISTOT                 RUA BRISTOT, 085                        00000000000 9536500000000                                                       000158
1AAA            AAA                            172001581      20170202 N B        00000000000000            0189317430680510170000000011300         AN020217000000000000000000202170000000000000000000000000000000000000001000068931743068ROMILDE BASOTTI BRISTOT                 RUA BRISTOT, 085                        00000000000 9536500000000                                                       000159
1AAA            AAA                            172001590      20170202 N B        00000000000000            0189317430680511170000000011300         AN020217000000000000000000202170000000000000000000000000000000000000001000068931743068ROMILDE BASOTTI BRISTOT                 RUA BRISTOT, 085                        00000000000 9536500000000                                                       000160
1AAA            AAA                            172001603      20170202 N B        00000000000000            0126415420721502170000000023000         AN020217000000000000000000202170000000000000000000000000000000000000001000002641542072LUIZ ROTTINI                            LINHA SILVA JARDIM , 000                00000000000 9534000000000                                                       000161
1AAA            AAA                            172001611      20170202 N B        00000000000000            0126415420721503170000000023000         AN020217000000000000000000202170000000000000000000000000000000000000001000002641542072LUIZ ROTTINI                            LINHA SILVA JARDIM , 000                00000000000 9534000000000                                                       000162
1AAA            AAA                            172001620      20170202 N B        00000000000000            0126415420721504170000000023000         AN020217000000000000000000202170000000000000000000000000000000000000001000002641542072LUIZ ROTTINI                            LINHA SILVA JARDIM , 000                00000000000 9534000000000                                                       000163
1AAA            AAA                            172001638      20170202 N B        00000000000000            0126415420721505170000000023000         AN020217000000000000000000202170000000000000000000000000000000000000001000002641542072LUIZ ROTTINI                            LINHA SILVA JARDIM , 000                00000000000 9534000000000                                                       000164
1AAA            AAA                            172001646      20170202 N B        00000000000000            0126415420721506170000000023000         AN020217000000000000000000202170000000000000000000000000000000000000001000002641542072LUIZ ROTTINI                            LINHA SILVA JARDIM , 000                00000000000 9534000000000                                                       000165
1AAA            AAA                            172001654      20170202 N B        00000000000000            0126415420721507170000000023000         AN020217000000000000000000202170000000000000000000000000000000000000001000002641542072LUIZ ROTTINI                            LINHA SILVA JARDIM , 000                00000000000 9534000000000                                                       000166
1AAA            AAA                            172001662      20170202 N B        00000000000000            0126415420721508170000000023000         AN020217000000000000000000202170000000000000000000000000000000000000001000002641542072LUIZ ROTTINI                            LINHA SILVA JARDIM , 000                00000000000 9534000000000                                                       000167
1AAA            AAA                            172001670      20170202 N B        00000000000000            0126415420721509170000000023000         AN020217000000000000000000202170000000000000000000000000000000000000001000002641542072LUIZ ROTTINI                            LINHA SILVA JARDIM , 000                00000000000 9534000000000                                                       000168
1AAA            AAA                            172001689      20170202 N B        00000000000000            0126415420721510170000000023000         AN020217000000000000000000202170000000000000000000000000000000000000001000002641542072LUIZ ROTTINI                            LINHA SILVA JARDIM , 000                00000000000 9534000000000                                                       000169
1AAA            AAA                            172001697      20170202 N B        00000000000000            0117824219551102170000000006500         AN020217000000000000000000202170000000000000000000000000000000000000001000001782421955ODINEI GRACIOLLI                        RUA UM LOTE BASSO, 585                  00000000000 9534000000000                                                       000170
1AAA            AAA                            172001700      20170202 N B        00000000000000            0117824219551103170000000006500         AN020217000000000000000000202170000000000000000000000000000000000000001000001782421955ODINEI GRACIOLLI                        RUA UM LOTE BASSO, 585                  00000000000 9534000000000                                                       000171
1AAA            AAA                            172001719      20170202 N B        00000000000000            0117824219551104170000000006500         AN020217000000000000000000202170000000000000000000000000000000000000001000001782421955ODINEI GRACIOLLI                        RUA UM LOTE BASSO, 585                  00000000000 9534000000000                                                       000172
1AAA            AAA                            172001727      20170202 N B        00000000000000            0117824219551105170000000006500         AN020217000000000000000000202170000000000000000000000000000000000000001000001782421955ODINEI GRACIOLLI                        RUA UM LOTE BASSO, 585                  00000000000 9534000000000                                                       000173
1AAA            AAA                            172001735      20170202 N B        00000000000000            0117824219551106170000000006500         AN020217000000000000000000202170000000000000000000000000000000000000001000001782421955ODINEI GRACIOLLI                        RUA UM LOTE BASSO, 585                  00000000000 9534000000000                                                       000174
1AAA            AAA                            172001743      20170202 N B        00000000000000            0117824219551107170000000006500         AN020217000000000000000000202170000000000000000000000000000000000000001000001782421955ODINEI GRACIOLLI                        RUA UM LOTE BASSO, 585                  00000000000 9534000000000                                                       000175
1AAA            AAA                            172001751      20170202 N B        00000000000000            0117824219551108170000000006500         AN020217000000000000000000202170000000000000000000000000000000000000001000001782421955ODINEI GRACIOLLI                        RUA UM LOTE BASSO, 585                  00000000000 9534000000000                                                       000176
1AAA            AAA                            172001760      20170202 N B        00000000000000            0117824219551109170000000006500         AN020217000000000000000000202170000000000000000000000000000000000000001000001782421955ODINEI GRACIOLLI                        RUA UM LOTE BASSO, 585                  00000000000 9534000000000                                                       000177
1AAA            AAA                            172001778      20170202 N B        00000000000000            0117824219551110170000000006500         AN020217000000000000000000202170000000000000000000000000000000000000001000001782421955ODINEI GRACIOLLI                        RUA UM LOTE BASSO, 585                  00000000000 9534000000000                                                       000178
1AAA            AAA                            172001786      20170202 N B        00000000000000            0189881300491202170000000027400         AN020217000000000000000000202170000000000000000000000000000000000000001000058988130049IVALDO GRIS                             LINHA CAPELA SAO LUIZ, 115              00000000000 9530500000000                                                       000179
1AAA            AAA                            172001794      20170202 N B        00000000000000            0104711040601302170000000015936         AN020217000000000000000000202170000000000000000000000000000000000000001000000471104060DAIANE CRISTINA MARCHESINI              RUA LUIZ MARAFON, 162                   00000000000 9534000000000                                                       000180
1AAA            AAA                            172001808      20170202 N B        00000000000000            0104711040601303170000000015936         AN020217000000000000000000202170000000000000000000000000000000000000001000000471104060DAIANE CRISTINA MARCHESINI              RUA LUIZ MARAFON, 162                   00000000000 9534000000000                                                       000181
1AAA            AAA                            172001816      20170202 N B        00000000000000            0104711040601304170000000015936         AN020217000000000000000000202170000000000000000000000000000000000000001000000471104060DAIANE CRISTINA MARCHESINI              RUA LUIZ MARAFON, 162                   00000000000 9534000000000                                                       000182
1AAA            AAA                            172001824      20170202 N B        00000000000000            0104711040601305170000000015936         AN020217000000000000000000202170000000000000000000000000000000000000001000000471104060DAIANE CRISTINA MARCHESINI              RUA LUIZ MARAFON, 162                   00000000000 9534000000000                                                       000183
1AAA            AAA                            172001832      20170202 N B        00000000000000            0104711040601306170000000015936         AN020217000000000000000000202170000000000000000000000000000000000000001000000471104060DAIANE CRISTINA MARCHESINI              RUA LUIZ MARAFON, 162                   00000000000 9534000000000                                                       000184
1AAA            AAA                            172001840      20170202 N B        00000000000000            0104711040601307170000000015936         AN020217000000000000000000202170000000000000000000000000000000000000001000000471104060DAIANE CRISTINA MARCHESINI              RUA LUIZ MARAFON, 162                   00000000000 9534000000000                                                       000185
1AAA            AAA                            172001859      20170202 N B        00000000000000            0104711040601308170000000015936         AN020217000000000000000000202170000000000000000000000000000000000000001000000471104060DAIANE CRISTINA MARCHESINI              RUA LUIZ MARAFON, 162                   00000000000 9534000000000                                                       000186
1AAA            AAA                            172001867      20170202 N B        00000000000000            0104711040601309170000000015936         AN020217000000000000000000202170000000000000000000000000000000000000001000000471104060DAIANE CRISTINA MARCHESINI              RUA LUIZ MARAFON, 162                   00000000000 9534000000000                                                       000187
1AAA            AAA                            172001875      20170202 N B        00000000000000            0104711040601310170000000015936         AN020217000000000000000000202170000000000000000000000000000000000000001000000471104060DAIANE CRISTINA MARCHESINI              RUA LUIZ MARAFON, 162                   00000000000 9534000000000                                                       000188
1AAA            AAA                            172001883      20170202 N B        00000000000000            0104711040601311170000000015936         AN020217000000000000000000202170000000000000000000000000000000000000001000000471104060DAIANE CRISTINA MARCHESINI              RUA LUIZ MARAFON, 162                   00000000000 9534000000000                                                       000189
1AAA            AAA                            172001891      20170202 N B        00000000000000            0108366010091502170000000013700         AN020217000000000000000000202170000000000000000000000000000000000000001000000836601009GELAINA SALES DA CRUZ                   LINHA NOSSA SRA. DE LOURDES, 000        00000000000 9536500000000                                                       000190
1AAA            AAA                            172001905      20170202 N B        00000000000000            0108366010091503170000000013700         AN020217000000000000000000202170000000000000000000000000000000000000001000000836601009GELAINA SALES DA CRUZ                   LINHA NOSSA SRA. DE LOURDES, 000        00000000000 9536500000000                                                       000191
1AAA            AAA                            172001913      20170202 N B        00000000000000            0108366010091504170000000013700         AN020217000000000000000000202170000000000000000000000000000000000000001000000836601009GELAINA SALES DA CRUZ                   LINHA NOSSA SRA. DE LOURDES, 000        00000000000 9536500000000                                                       000192
1AAA            AAA                            172001921      20170202 N B        00000000000000            0108366010091505170000000013700         AN020217000000000000000000202170000000000000000000000000000000000000001000000836601009GELAINA SALES DA CRUZ                   LINHA NOSSA SRA. DE LOURDES, 000        00000000000 9536500000000                                                       000193
1AAA            AAA                            172001930      20170202 N B        00000000000000            0108366010091506170000000013700         AN020217000000000000000000202170000000000000000000000000000000000000001000000836601009GELAINA SALES DA CRUZ                   LINHA NOSSA SRA. DE LOURDES, 000        00000000000 9536500000000                                                       000194
1AAA            AAA                            172001948      20170202 N B        00000000000000            0108366010091507170000000013700         AN020217000000000000000000202170000000000000000000000000000000000000001000000836601009GELAINA SALES DA CRUZ                   LINHA NOSSA SRA. DE LOURDES, 000        00000000000 9536500000000                                                       000195
1AAA            AAA                            172001956      20170202 N B        00000000000000            0108366010091508170000000013700         AN020217000000000000000000202170000000000000000000000000000000000000001000000836601009GELAINA SALES DA CRUZ                   LINHA NOSSA SRA. DE LOURDES, 000        00000000000 9536500000000                                                       000196
1AAA            AAA                            172001964      20170202 N B        00000000000000            0108366010091509170000000013700         AN020217000000000000000000202170000000000000000000000000000000000000001000000836601009GELAINA SALES DA CRUZ                   LINHA NOSSA SRA. DE LOURDES, 000        00000000000 9536500000000                                                       000197
1AAA            AAA                            172001972      20170202 N B        00000000000000            0108366010091510170000000013700         AN020217000000000000000000202170000000000000000000000000000000000000001000000836601009GELAINA SALES DA CRUZ                   LINHA NOSSA SRA. DE LOURDES, 000        00000000000 9536500000000                                                       000198
1AAA            AAA                            172001980      20170202 N B        00000000000000            0110720220442502170000000008636         AN020217000000000000000000202170000000000000000000000000000000000000001000001072022044VERIQUEL SCARLOT PIRES                  AV BRASIL, 099                          00000000000 9534000000000                                                       000199
1AAA            AAA                            172001999      20170202 N B        00000000000000            0110720220442503170000000008633         AN020217000000000000000000202170000000000000000000000000000000000000001000001072022044VERIQUEL SCARLOT PIRES                  AV BRASIL, 099                          00000000000 9534000000000                                                       000200
1AAA            AAA                            172002006      20170202 N B        00000000000000            0110720220442504170000000008633         AN020217000000000000000000202170000000000000000000000000000000000000001000001072022044VERIQUEL SCARLOT PIRES                  AV BRASIL, 099                          00000000000 9534000000000                                                       000201
1AAA            AAA                            172002014      20170202 N B        00000000000000            0110720220442505170000000008633         AN020217000000000000000000202170000000000000000000000000000000000000001000001072022044VERIQUEL SCARLOT PIRES                  AV BRASIL, 099                          00000000000 9534000000000                                                       000202
1AAA            AAA                            172002022      20170202 N B        00000000000000            0110720220442506170000000008633         AN020217000000000000000000202170000000000000000000000000000000000000001000001072022044VERIQUEL SCARLOT PIRES                  AV BRASIL, 099                          00000000000 9534000000000                                                       000203
1AAA            AAA                            172002030      20170202 N B        00000000000000            0110720220442507170000000008633         AN020217000000000000000000202170000000000000000000000000000000000000001000001072022044VERIQUEL SCARLOT PIRES                  AV BRASIL, 099                          00000000000 9534000000000                                                       000204
1AAA            AAA                            172002049      20170202 N B        00000000000000            0110720220442508170000000008633         AN020217000000000000000000202170000000000000000000000000000000000000001000001072022044VERIQUEL SCARLOT PIRES                  AV BRASIL, 099                          00000000000 9534000000000                                                       000205
1AAA            AAA                            172002057      20170202 N B        00000000000000            0110720220442509170000000008633         AN020217000000000000000000202170000000000000000000000000000000000000001000001072022044VERIQUEL SCARLOT PIRES                  AV BRASIL, 099                          00000000000 9534000000000                                                       000206
1AAA            AAA                            172002065      20170202 N B        00000000000000            0110720220442510170000000008633         AN020217000000000000000000202170000000000000000000000000000000000000001000001072022044VERIQUEL SCARLOT PIRES                  AV BRASIL, 099                          00000000000 9534000000000                                                       000207
1AAA            AAA                            172002073      20170202 N B        00000000000000            0115394700401702170000000018300         AN020217000000000000000000202170000000000000000000000000000000000000001000001539470040KAREN VACCARI                           RUA VITORIO RICHETTI, 034               00000000000 9535500000000                                                       000208
1AAA            AAA                            172002081      20170202 N B        00000000000000            0115394700401703170000000018300         AN020217000000000000000000202170000000000000000000000000000000000000001000001539470040KAREN VACCARI                           RUA VITORIO RICHETTI, 034               00000000000 9535500000000                                                       000209
1AAA            AAA                            172002090      20170202 N B        00000000000000            0115394700401704170000000018300         AN020217000000000000000000202170000000000000000000000000000000000000001000001539470040KAREN VACCARI                           RUA VITORIO RICHETTI, 034               00000000000 9535500000000                                                       000210
1AAA            AAA                            172002103      20170202 N B        00000000000000            0115394700401705170000000018300         AN020217000000000000000000202170000000000000000000000000000000000000001000001539470040KAREN VACCARI                           RUA VITORIO RICHETTI, 034               00000000000 9535500000000                                                       000211
1AAA            AAA                            172002111      20170202 N B        00000000000000            0115394700401706170000000018300         AN020217000000000000000000202170000000000000000000000000000000000000001000001539470040KAREN VACCARI                           RUA VITORIO RICHETTI, 034               00000000000 9535500000000                                                       000212
1AAA            AAA                            172002120      20170202 N B        00000000000000            0115394700401707170000000018300         AN020217000000000000000000202170000000000000000000000000000000000000001000001539470040KAREN VACCARI                           RUA VITORIO RICHETTI, 034               00000000000 9535500000000                                                       000213
1AAA            AAA                            172002138      20170202 N B        00000000000000            0115394700401708170000000018300         AN020217000000000000000000202170000000000000000000000000000000000000001000001539470040KAREN VACCARI                           RUA VITORIO RICHETTI, 034               00000000000 9535500000000                                                       000214
1AAA            AAA                            172002146      20170202 N B        00000000000000            0115394700401709170000000018300         AN020217000000000000000000202170000000000000000000000000000000000000001000001539470040KAREN VACCARI                           RUA VITORIO RICHETTI, 034               00000000000 9535500000000                                                       000215
1AAA            AAA                            172002154      20170202 N B        00000000000000            0115394700401710170000000018300         AN020217000000000000000000202170000000000000000000000000000000000000001000001539470040KAREN VACCARI                           RUA VITORIO RICHETTI, 034               00000000000 9535500000000                                                       000216
1AAA            AAA                            172002162      20170202 N B        00000000000000            0126075800052002170000000021900         AN020217000000000000000000202170000000000000000000000000000000000000001000002607580005AMANDA PALLA                            RUA SENHOR BOM JESUS , 100              00000000000 9534000000000                                                       000217
1AAA            AAA                            172002170      20170202 N B        00000000000000            0116214710471003170000000025966         AN020217000000000000000000202170000000000000000000000000000000000000001000001621471047BRUNA ZANELLA                           RUA PINHEIRO MACHADO, 1166              00000000000 9534000000000                                                       000218
1AAA            AAA                            172002189      20170202 N B        00000000000000            0178156400872002170000000014158         AN020217000000000000000000202170000000000000000000000000000000000000001000097815640087CLARITA ANA DE LIMA                     RUA JOAO BATISTA DALLIGNA, 075          00000000000 9534000000000                                                       000219
1AAA            AAA                            172002197      20170202 N B        00000000000000            0178156400872003170000000014158         AN020217000000000000000000202170000000000000000000000000000000000000001000097815640087CLARITA ANA DE LIMA                     RUA JOAO BATISTA DALLIGNA, 075          00000000000 9534000000000                                                       000220
1AAA            AAA                            172002200      20170202 N B        00000000000000            0178156400872004170000000014158         AN020217000000000000000000202170000000000000000000000000000000000000001000097815640087CLARITA ANA DE LIMA                     RUA JOAO BATISTA DALLIGNA, 075          00000000000 9534000000000                                                       000221
1AAA            AAA                            172002219      20170202 N B        00000000000000            0178156400872005170000000014158         AN020217000000000000000000202170000000000000000000000000000000000000001000097815640087CLARITA ANA DE LIMA                     RUA JOAO BATISTA DALLIGNA, 075          00000000000 9534000000000                                                       000222
1AAA            AAA                            172002227      20170202 N B        00000000000000            0178156400872006170000000014158         AN020217000000000000000000202170000000000000000000000000000000000000001000097815640087CLARITA ANA DE LIMA                     RUA JOAO BATISTA DALLIGNA, 075          00000000000 9534000000000                                                       000223
1AAA            AAA                            172002235      20170202 N B        00000000000000            0178156400872007170000000014158         AN020217000000000000000000202170000000000000000000000000000000000000001000097815640087CLARITA ANA DE LIMA                     RUA JOAO BATISTA DALLIGNA, 075          00000000000 9534000000000                                                       000224
1AAA            AAA                            172002243      20170202 N B        00000000000000            0178156400872008170000000014158         AN020217000000000000000000202170000000000000000000000000000000000000001000097815640087CLARITA ANA DE LIMA                     RUA JOAO BATISTA DALLIGNA, 075          00000000000 9534000000000                                                       000225
1AAA            AAA                            172002251      20170202 N B        00000000000000            0178156400872009170000000014158         AN020217000000000000000000202170000000000000000000000000000000000000001000097815640087CLARITA ANA DE LIMA                     RUA JOAO BATISTA DALLIGNA, 075          00000000000 9534000000000                                                       000226
1AAA            AAA                            172002260      20170202 N B        00000000000000            0178156400872010170000000014158         AN020217000000000000000000202170000000000000000000000000000000000000001000097815640087CLARITA ANA DE LIMA                     RUA JOAO BATISTA DALLIGNA, 075          00000000000 9534000000000                                                       000227
1AAA            AAA                            172002278      20170202 N B        00000000000000            0178156400871003170000000014158         AN020217000000000000000000202170000000000000000000000000000000000000001000097815640087CLARITA ANA DE LIMA                     RUA JOAO BATISTA DALLIGNA, 075          00000000000 9534000000000                                                       000228
1AAA            AAA                            172002286      20170202 N B        00000000000000            0178156400871004170000000014158         AN020217000000000000000000202170000000000000000000000000000000000000001000097815640087CLARITA ANA DE LIMA                     RUA JOAO BATISTA DALLIGNA, 075          00000000000 9534000000000                                                       000229
1AAA            AAA                            172002294      20170202 N B        00000000000000            0178156400871005170000000014158         AN020217000000000000000000202170000000000000000000000000000000000000001000097815640087CLARITA ANA DE LIMA                     RUA JOAO BATISTA DALLIGNA, 075          00000000000 9534000000000                                                       000230
1AAA            AAA                            172002308      20170202 N B        00000000000000            0178156400871006170000000014158         AN020217000000000000000000202170000000000000000000000000000000000000001000097815640087CLARITA ANA DE LIMA                     RUA JOAO BATISTA DALLIGNA, 075          00000000000 9534000000000                                                       000231
1AAA            AAA                            172002316      20170202 N B        00000000000000            0178156400871007170000000014158         AN020217000000000000000000202170000000000000000000000000000000000000001000097815640087CLARITA ANA DE LIMA                     RUA JOAO BATISTA DALLIGNA, 075          00000000000 9534000000000                                                       000232
1AAA            AAA                            172002324      20170202 N B        00000000000000            0178156400871008170000000014158         AN020217000000000000000000202170000000000000000000000000000000000000001000097815640087CLARITA ANA DE LIMA                     RUA JOAO BATISTA DALLIGNA, 075          00000000000 9534000000000                                                       000233
1AAA            AAA                            172002332      20170202 N B        00000000000000            0178156400871009170000000014158         AN020217000000000000000000202170000000000000000000000000000000000000001000097815640087CLARITA ANA DE LIMA                     RUA JOAO BATISTA DALLIGNA, 075          00000000000 9534000000000                                                       000234
1AAA            AAA                            172002340      20170202 N B        00000000000000            0178156400871010170000000014158         AN020217000000000000000000202170000000000000000000000000000000000000001000097815640087CLARITA ANA DE LIMA                     RUA JOAO BATISTA DALLIGNA, 075          00000000000 9534000000000                                                       000235
1AAA            AAA                            172002359      20170202 N B        00000000000000            0178156400871011170000000014158         AN020217000000000000000000202170000000000000000000000000000000000000001000097815640087CLARITA ANA DE LIMA                     RUA JOAO BATISTA DALLIGNA, 075          00000000000 9534000000000                                                       000236
1AAA            AAA                            172002367      20170202 N B        00000000000000            0101196670532002170000000009200         AN020217000000000000000000202170000000000000000000000000000000000000001000060119667053JAIR PALLA                              UA ADOLFO FERRON, 000                   00000000000 9534000000000                                                       000237
1AAA            AAA                            172002375      20170202 N B        00000000000000            0101196670532003170000000009200         AN020217000000000000000000202170000000000000000000000000000000000000001000060119667053JAIR PALLA                              UA ADOLFO FERRON, 000                   00000000000 9534000000000                                                       000238
1AAA            AAA                            172002383      20170202 N B        00000000000000            0101196670532004170000000009200         AN020217000000000000000000202170000000000000000000000000000000000000001000060119667053JAIR PALLA                              UA ADOLFO FERRON, 000                   00000000000 9534000000000                                                       000239
1AAA            AAA                            172002391      20170202 N B        00000000000000            0101196670532005170000000009200         AN020217000000000000000000202170000000000000000000000000000000000000001000060119667053JAIR PALLA                              UA ADOLFO FERRON, 000                   00000000000 9534000000000                                                       000240
1AAA            AAA                            172002405      20170202 N B        00000000000000            0101196670532006170000000009200         AN020217000000000000000000202170000000000000000000000000000000000000001000060119667053JAIR PALLA                              UA ADOLFO FERRON, 000                   00000000000 9534000000000                                                       000241
1AAA            AAA                            172002413      20170202 N B        00000000000000            0118625680902102170000000048950         AN020217000000000000000000202170000000000000000000000000000000000000001000001862568090AFRANIO SOMACAL                         LINHA CACADOR, 000                      00000000000 9534000000000                                                       000242
1AAA            AAA                            172002421      20170202 N B        00000000000000            0128593700642302170000000020878         AN020217000000000000000000202170000000000000000000000000000000000000001000002859370064MACSUEL PESENATTO ZAMPIERON             RUA  A LOT SILVA JARDIM , 042           00000000000 9534000000000                                                       000243
1AAA            AAA                            172002430      20170202 N B        00000000000000            0128593700642303170000000020878         AN020217000000000000000000202170000000000000000000000000000000000000001000002859370064MACSUEL PESENATTO ZAMPIERON             RUA  A LOT SILVA JARDIM , 042           00000000000 9534000000000                                                       000244
1AAA            AAA                            172002448      20170202 N B        00000000000000            0128593700642304170000000020878         AN020217000000000000000000202170000000000000000000000000000000000000001000002859370064MACSUEL PESENATTO ZAMPIERON             RUA  A LOT SILVA JARDIM , 042           00000000000 9534000000000                                                       000245
1AAA            AAA                            172002456      20170202 N B        00000000000000            0128593700642305170000000020878         AN020217000000000000000000202170000000000000000000000000000000000000001000002859370064MACSUEL PESENATTO ZAMPIERON             RUA  A LOT SILVA JARDIM , 042           00000000000 9534000000000                                                       000246
1AAA            AAA                            172002464      20170202 N B        00000000000000            0107180819192602170000000011000         AN020217000000000000000000202170000000000000000000000000000000000000001000000718081919VALMIR DOS SANTOS TERRES                RUA EVARISTO MARTINS, 375               00000000000 8388000000000                                                       000247
1AAA            AAA                            172002472      20170202 N B        00000000000000            0107180819192603170000000011000         AN020217000000000000000000202170000000000000000000000000000000000000001000000718081919VALMIR DOS SANTOS TERRES                RUA EVARISTO MARTINS, 375               00000000000 8388000000000                                                       000248
1AAA            AAA                            172002480      20170202 N B        00000000000000            0107180819192604170000000011000         AN020217000000000000000000202170000000000000000000000000000000000000001000000718081919VALMIR DOS SANTOS TERRES                RUA EVARISTO MARTINS, 375               00000000000 8388000000000                                                       000249
