02RETORNO01COBRANCA       4262973757502000135                               748BANSICREDI     20170203        0000003                                                                                                                                                                                                                                                                                 1.00000001
1            A008OT000002                      172000011                                                    020202171072022044                    2202170000000006100         A000000000000000000000000000000000000000000000000000000000000000000000000000000000000000000000000000000000000000000000                          0000000000                                                                  000002
1            A008OT000002                      172000020                                                    020202171072022044                    2203170000000006100         A000000000000000000000000000000000000000000000000000000000000000000000000000000000000000000000000000000000000000000000                          0000000000                                                                  000003
1            A008OT000002                      172000038                                                    020202171072022044                    2204170000000006100         A000000000000000000000000000000000000000000000000000000000000000000000000000000000000000000000000000000000000000000000                          0000000000                                                                  000004
1            A008OT000002                      172000046                                                    020202171072022044                    2205170000000006100         A000000000000000000000000000000000000000000000000000000000000000000000000000000000000000000000000000000000000000000000                          0000000000                                                                  000005
1            A008OT000002                      172000054                                                    020202171072022044                    2206170000000006100         A000000000000000000000000000000000000000000000000000000000000000000000000000000000000000000000000000000000000000000000                          0000000000                                                                  000006
1            A008OT000002                      172000062                                                    020202171072022044                    2207170000000006100         A000000000000000000000000000000000000000000000000000000000000000000000000000000000000000000000000000000000000000000000                          0000000000                                                                  000007
1            A008OT000002                      172000070                                                    020202171072022044                    2208170000000006100         A000000000000000000000000000000000000000000000000000000000000000000000000000000000000000000000000000000000000000000000                          0000000000                                                                  000008
1            A008OT000002                      172000089                                                    020202171072022044                    2209170000000006100         A000000000000000000000000000000000000000000000000000000000000000000000000000000000000000000000000000000000000000000000                          0000000000                                                                  000009
1            A008OU000002                      172000097                                                    020202170673391078                    2002170000000016500         A000000000000000000000000000000000000000000000000000000000000000000000000000000000000000000000000000000000000000000000                          0000000000                                                                  000010
1            A008OU000002                      172000100                                                    020202170673391078                    2003170000000016500         A000000000000000000000000000000000000000000000000000000000000000000000000000000000000000000000000000000000000000000000                          0000000000                                                                  000011
1            A008OU000002                      172000119                                                    020202170673391078                    2004170000000016500         A000000000000000000000000000000000000000000000000000000000000000000000000000000000000000000000000000000000000000000000                          0000000000                                                                  000012
1            A008OU000002                      172000127                                                    020202170673391078                    2005170000000016500         A000000000000000000000000000000000000000000000000000000000000000000000000000000000000000000000000000000000000000000000                          0000000000                                                                  000013
1            A008OU000002                      172000135                                                    020202170673391078                    2006170000000016500         A000000000000000000000000000000000000000000000000000000000000000000000000000000000000000000000000000000000000000000000                          0000000000                                                                  000014
1            A008OU000002                      172000143                                                    020202170673391078                    2007170000000016500         A000000000000000000000000000000000000000000000000000000000000000000000000000000000000000000000000000000000000000000000                          0000000000                                                                  000015
1            A008OU000002                      172000151                                                    020202170673391078                    2008170000000016500         A000000000000000000000000000000000000000000000000000000000000000000000000000000000000000000000000000000000000000000000                          0000000000                                                                  000016
1            A008OU000002                      172000160                                                    020202170673391078                    2009170000000016500         A000000000000000000000000000000000000000000000000000000000000000000000000000000000000000000000000000000000000000000000                          0000000000                                                                  000017
1            A008OU000002                      172000178                                                    020202170673391078                    2010170000000016500         A000000000000000000000000000000000000000000000000000000000000000000000000000000000000000000000000000000000000000000000                          0000000000                                                                  000018
1            A008OV000002                      172000186                                                    020202170394161009                    2002170000000015800         A000000000000000000000000000000000000000000000000000000000000000000000000000000000000000000000000000000000000000000000                          0000000000                                                                  000019
1            A008OV000002                      172000194                                                    020202170394161009                    2003170000000015800         A000000000000000000000000000000000000000000000000000000000000000000000000000000000000000000000000000000000000000000000                          0000000000                                                                  000020
1            A008OV000002                      172000208                                                    020202170394161009                    2004170000000015800         A000000000000000000000000000000000000000000000000000000000000000000000000000000000000000000000000000000000000000000000                          0000000000                                                                  000021
1            A008OV000002                      172000216                                                    020202170394161009                    2005170000000015800         A000000000000000000000000000000000000000000000000000000000000000000000000000000000000000000000000000000000000000000000                          0000000000                                                                  000022
1            A008OV000002                      172000224                                                    020202170394161009                    2006170000000015800         A000000000000000000000000000000000000000000000000000000000000000000000000000000000000000000000000000000000000000000000                          0000000000                                                                  000023
1            A008OV000002                      172000232                                                    020202170394161009                    2007170000000015800         A000000000000000000000000000000000000000000000000000000000000000000000000000000000000000000000000000000000000000000000                          0000000000                                                                  000024
1            A008OV000002                      172000240                                                    020202170394161009                    2008170000000015800         A000000000000000000000000000000000000000000000000000000000000000000000000000000000000000000000000000000000000000000000                          0000000000                                                                  000025
1            A008OV000002                      172000259                                                    020202170394161009                    2009170000000015800         A000000000000000000000000000000000000000000000000000000000000000000000000000000000000000000000000000000000000000000000                          0000000000                                                                  000026
1            A008OV000002                      172000267                                                    020202170394161009                    2010170000000015800         A000000000000000000000000000000000000000000000000000000000000000000000000000000000000000000000000000000000000000000000                          0000000000                                                                  000027
1            A008OW000002                      172000275                                                    020202172641542072                    2002170000000017600         A000000000000000000000000000000000000000000000000000000000000000000000000000000000000000000000000000000000000000000000                          0000000000                                                                  000028
1            A008OW000002                      172000283                                                    020202172641542072                    2003170000000017600         A000000000000000000000000000000000000000000000000000000000000000000000000000000000000000000000000000000000000000000000                          0000000000                                                                  000029
1            A008OW000002                      172000291                                                    020202172641542072                    2004170000000017600         A000000000000000000000000000000000000000000000000000000000000000000000000000000000000000000000000000000000000000000000                          0000000000                                                                  000030
1            A008OW000002                      172000305                                                    020202172641542072                    2005170000000017600         A000000000000000000000000000000000000000000000000000000000000000000000000000000000000000000000000000000000000000000000                          0000000000                                                                  000031
1            A008OW000002                      172000313                                                    020202172641542072                    2006170000000017600         A000000000000000000000000000000000000000000000000000000000000000000000000000000000000000000000000000000000000000000000                          0000000000                                                                  000032
1            A008OW000002                      172000321                                                    020202172641542072                    2007170000000017600         A000000000000000000000000000000000000000000000000000000000000000000000000000000000000000000000000000000000000000000000                          0000000000                                                                  000033
1            A008OW000002                      172000330                                                    020202172641542072                    2008170000000017600         A000000000000000000000000000000000000000000000000000000000000000000000000000000000000000000000000000000000000000000000                          0000000000                                                                  000034
1            A008OW000002                      172000348                                                    020202172641542072                    2009170000000017600         A000000000000000000000000000000000000000000000000000000000000000000000000000000000000000000000000000000000000000000000                          0000000000                                                                  000035
1            A00000000002                      172000356                                                    030202170986023060                    1503170000000006800         A000000000000000000000000000000000000000000000000000000000000000000000000000000000000000000000000000000000000000000000                          C600000000                                                                  000036
1            A008OX000002                      172000364                                                    020202170986023060                    1504170000000006800         A000000000000000000000000000000000000000000000000000000000000000000000000000000000000000000000000000000000000000000000                          0000000000                                                                  000037
1            A008OX000002                      172000372                                                    020202170986023060                    1505170000000006800         A000000000000000000000000000000000000000000000000000000000000000000000000000000000000000000000000000000000000000000000                          0000000000                                                                  000038
1            A008OX000002                      172000380                                                    020202170986023060                    1506170000000006800         A000000000000000000000000000000000000000000000000000000000000000000000000000000000000000000000000000000000000000000000                          0000000000                                                                  000039
1            A008OX000002                      172000399                                                    020202170986023060                    1507170000000006800         A000000000000000000000000000000000000000000000000000000000000000000000000000000000000000000000000000000000000000000000                          0000000000                                                                  000040
1            A008OX000002                      172000402                                                    020202170986023060                    1508170000000006800         A000000000000000000000000000000000000000000000000000000000000000000000000000000000000000000000000000000000000000000000                          0000000000                                                                  000041
1            A008OX000002                      172000410                                                    020202170986023060                    1509170000000006800         A000000000000000000000000000000000000000000000000000000000000000000000000000000000000000000000000000000000000000000000                          0000000000                                                                  000042
1            A008OX000002                      172000429                                                    020202170986023060                    1510170000000006800         A000000000000000000000000000000000000000000000000000000000000000000000000000000000000000000000000000000000000000000000                          0000000000                                                                  000043
1            A008OY000002                      172000437                                                    020202176272692072                    0203170000000012500         A000000000000000000000000000000000000000000000000000000000000000000000000000000000000000000000000000000000000000000000                          0000000000                                                                  000044
1            A008OY000002                      172000445                                                    020202176272692072                    0204170000000012500         A000000000000000000000000000000000000000000000000000000000000000000000000000000000000000000000000000000000000000000000                          0000000000                                                                  000045
1            A008OY000002                      172000453                                                    020202176272692072                    0205170000000012500         A000000000000000000000000000000000000000000000000000000000000000000000000000000000000000000000000000000000000000000000                          0000000000                                                                  000046
1            A008OY000002                      172000461                                                    020202176272692072                    0206170000000012500         A000000000000000000000000000000000000000000000000000000000000000000000000000000000000000000000000000000000000000000000                          0000000000                                                                  000047
1            A008OY000002                      172000470                                                    020202176272692072                    0207170000000012500         A000000000000000000000000000000000000000000000000000000000000000000000000000000000000000000000000000000000000000000000                          0000000000                                                                  000048
1            A008OY000002                      172000488                                                    020202176272692072                    0208170000000012500         A000000000000000000000000000000000000000000000000000000000000000000000000000000000000000000000000000000000000000000000                          0000000000                                                                  000049
1            A008OY000002                      172000496                                                    020202176272692072                    0209170000000012500         A000000000000000000000000000000000000000000000000000000000000000000000000000000000000000000000000000000000000000000000                          0000000000                                                                  000050
1            A008OY000002                      172000500                                                    020202176272692072                    0210170000000012500         A000000000000000000000000000000000000000000000000000000000000000000000000000000000000000000000000000000000000000000000                          0000000000                                                                  000051
1            A008OZ000002                      172000518                                                    020202171646415051                    1003170000000025180         A000000000000000000000000000000000000000000000000000000000000000000000000000000000000000000000000000000000000000000000                          0000000000                                                                  000052
1            A008OZ000002                      172000526                                                    020202171646415051                    1004170000000025180         A000000000000000000000000000000000000000000000000000000000000000000000000000000000000000000000000000000000000000000000                          0000000000                                                                  000053
1            A008OZ000002                      172000534                                                    020202171646415051                    1005170000000025180         A000000000000000000000000000000000000000000000000000000000000000000000000000000000000000000000000000000000000000000000                          0000000000                                                                  000054
1            A008OZ000002                      172000542                                                    020202171646415051                    1006170000000025180         A000000000000000000000000000000000000000000000000000000000000000000000000000000000000000000000000000000000000000000000                          0000000000                                                                  000055
1            A008OZ000002                      172000550                                                    020202171646415051                    1007170000000025180         A000000000000000000000000000000000000000000000000000000000000000000000000000000000000000000000000000000000000000000000                          0000000000                                                                  000056
1            A008OZ000002                      172000569                                                    020202171646415051                    1008170000000025180         A000000000000000000000000000000000000000000000000000000000000000000000000000000000000000000000000000000000000000000000                          0000000000                                                                  000057
1            A008OZ000002                      172000577                                                    020202171646415051                    1009170000000025180         A000000000000000000000000000000000000000000000000000000000000000000000000000000000000000000000000000000000000000000000                          0000000000                                                                  000058
1            A008OZ000002                      172000585                                                    020202171646415051                    1010170000000025180         A000000000000000000000000000000000000000000000000000000000000000000000000000000000000000000000000000000000000000000000                          0000000000                                                                  000059
1            A008OU000002                      172000593                                                    020202170673391078                    0203170000000005500         A000000000000000000000000000000000000000000000000000000000000000000000000000000000000000000000000000000000000000000000                          0000000000                                                                  000060
1            A008OU000002                      172000607                                                    020202170673391078                    0204170000000005500         A000000000000000000000000000000000000000000000000000000000000000000000000000000000000000000000000000000000000000000000                          0000000000                                                                  000061
1            A008P0000002                      172000615                                                    020202170932613063                    1502170000000015000         A000000000000000000000000000000000000000000000000000000000000000000000000000000000000000000000000000000000000000000000                          0000000000                                                                  000062
1            A008P0000002                      172000623                                                    020202170932613063                    1503170000000015000         A000000000000000000000000000000000000000000000000000000000000000000000000000000000000000000000000000000000000000000000                          0000000000                                                                  000063
1            A008P0000002                      172000631                                                    020202170932613063                    1504170000000015000         A000000000000000000000000000000000000000000000000000000000000000000000000000000000000000000000000000000000000000000000                          0000000000                                                                  000064
1            A008P0000002                      172000640                                                    020202170932613063                    1505170000000015000         A000000000000000000000000000000000000000000000000000000000000000000000000000000000000000000000000000000000000000000000                          0000000000                                                                  000065
1            A008P0000002                      172000658                                                    020202170932613063                    1506170000000015000         A000000000000000000000000000000000000000000000000000000000000000000000000000000000000000000000000000000000000000000000                          0000000000                                                                  000066
1            A008P0000002                      172000666                                                    020202170932613063                    1507170000000015000         A000000000000000000000000000000000000000000000000000000000000000000000000000000000000000000000000000000000000000000000                          0000000000                                                                  000067
1            A008P0000002                      172000674                                                    020202170932613063                    1508170000000015000         A000000000000000000000000000000000000000000000000000000000000000000000000000000000000000000000000000000000000000000000                          0000000000                                                                  000068
1            A008P0000002                      172000682                                                    020202170932613063                    1509170000000015000         A000000000000000000000000000000000000000000000000000000000000000000000000000000000000000000000000000000000000000000000                          0000000000                                                                  000069
1            A008P0000002                      172000690                                                    020202170932613063                    1510170000000015000         A000000000000000000000000000000000000000000000000000000000000000000000000000000000000000000000000000000000000000000000                          0000000000                                                                  000070
1            A008P1000002                      172000704                                                    020202170160065003                    1502170000000010400         A000000000000000000000000000000000000000000000000000000000000000000000000000000000000000000000000000000000000000000000                          0000000000                                                                  000071
1            A008P1000002                      172000712                                                    020202170160065003                    1503170000000010400         A000000000000000000000000000000000000000000000000000000000000000000000000000000000000000000000000000000000000000000000                          0000000000                                                                  000072
1            A008P1000002                      172000720                                                    020202170160065003                    1504170000000010400         A000000000000000000000000000000000000000000000000000000000000000000000000000000000000000000000000000000000000000000000                          0000000000                                                                  000073
1            A008P1000002                      172000739                                                    020202170160065003                    1505170000000010400         A000000000000000000000000000000000000000000000000000000000000000000000000000000000000000000000000000000000000000000000                          0000000000                                                                  000074
1            A008P2000002                      172000747                                                    020202176285110034                    2802170000000011300         A000000000000000000000000000000000000000000000000000000000000000000000000000000000000000000000000000000000000000000000                          0000000000                                                                  000075
1            A008P2000002                      172000755                                                    020202176285110034                    3003170000000011300         A000000000000000000000000000000000000000000000000000000000000000000000000000000000000000000000000000000000000000000000                          0000000000                                                                  000076
1            A008P3000002                      172000763                                                    020202175233428091                    1502170000000006500         A000000000000000000000000000000000000000000000000000000000000000000000000000000000000000000000000000000000000000000000                          0000000000                                                                  000077
1            A008P3000002                      172000771                                                    020202175233428091                    1503170000000006500         A000000000000000000000000000000000000000000000000000000000000000000000000000000000000000000000000000000000000000000000                          0000000000                                                                  000078
1            A008P3000002                      172000780                                                    020202175233428091                    1504170000000006500         A000000000000000000000000000000000000000000000000000000000000000000000000000000000000000000000000000000000000000000000                          0000000000                                                                  000079
1            A008P3000002                      172000798                                                    020202175233428091                    1505170000000006500         A000000000000000000000000000000000000000000000000000000000000000000000000000000000000000000000000000000000000000000000                          0000000000                                                                  000080
1            A008P3000002                      172000801                                                    020202175233428091                    1506170000000006500         A000000000000000000000000000000000000000000000000000000000000000000000000000000000000000000000000000000000000000000000                          0000000000                                                                  000081
1            A008P3000002                      172000810                                                    020202175233428091                    1507170000000006500         A000000000000000000000000000000000000000000000000000000000000000000000000000000000000000000000000000000000000000000000                          0000000000                                                                  000082
1            A008P3000002                      172000828                                                    020202175233428091                    1508170000000006500         A000000000000000000000000000000000000000000000000000000000000000000000000000000000000000000000000000000000000000000000                          0000000000                                                                  000083
1            A008P3000002                      172000836                                                    020202175233428091                    1509170000000006500         A000000000000000000000000000000000000000000000000000000000000000000000000000000000000000000000000000000000000000000000                          0000000000                                                                  000084
1            A008P4000002                      172000844                                                    020202177266816068                    1003170000000009400         A000000000000000000000000000000000000000000000000000000000000000000000000000000000000000000000000000000000000000000000                          0000000000                                                                  000085
1            A008P4000002                      172000852                                                    020202177266816068                    1004170000000009400         A000000000000000000000000000000000000000000000000000000000000000000000000000000000000000000000000000000000000000000000                          0000000000                                                                  000086
1            A008P4000002                      172000860                                                    020202177266816068                    1005170000000009400         A000000000000000000000000000000000000000000000000000000000000000000000000000000000000000000000000000000000000000000000                          0000000000                                                                  000087
1            A008P4000002                      172000879                                                    020202177266816068                    1006170000000009400         A000000000000000000000000000000000000000000000000000000000000000000000000000000000000000000000000000000000000000000000                          0000000000                                                                  000088
1            A008P4000002                      172000887                                                    020202177266816068                    1007170000000009400         A000000000000000000000000000000000000000000000000000000000000000000000000000000000000000000000000000000000000000000000                          0000000000                                                                  000089
1            A008P4000002                      172000895                                                    020202177266816068                    1008170000000009400         A000000000000000000000000000000000000000000000000000000000000000000000000000000000000000000000000000000000000000000000                          0000000000                                                                  000090
1            A008P4000002                      172000909                                                    020202177266816068                    1009170000000009400         A000000000000000000000000000000000000000000000000000000000000000000000000000000000000000000000000000000000000000000000                          0000000000                                                                  000091
1            A008P5000002                      172000917                                                    020202173382682087                    0204170000000015800         A000000000000000000000000000000000000000000000000000000000000000000000000000000000000000000000000000000000000000000000                          0000000000                                                                  000092
1            A008P5000002                      172000925                                                    020202173382682087                    0205170000000015800         A000000000000000000000000000000000000000000000000000000000000000000000000000000000000000000000000000000000000000000000                          0000000000                                                                  000093
1            A008P5000002                      172000933                                                    020202173382682087                    0206170000000015800         A000000000000000000000000000000000000000000000000000000000000000000000000000000000000000000000000000000000000000000000                          0000000000                                                                  000094
1            A008P5000002                      172000941                                                    020202173382682087                    0207170000000015800         A000000000000000000000000000000000000000000000000000000000000000000000000000000000000000000000000000000000000000000000                          0000000000                                                                  000095
1            A008P5000002                      172000950                                                    020202173382682087                    0208170000000015800         A000000000000000000000000000000000000000000000000000000000000000000000000000000000000000000000000000000000000000000000                          0000000000                                                                  000096
1            A008P6000002                      172000968                                                    020202171355456096                    1502170000000011388         A000000000000000000000000000000000000000000000000000000000000000000000000000000000000000000000000000000000000000000000                          0000000000                                                                  000097
1            A008P6000002                      172000976                                                    020202171355456096                    1503170000000011388         A000000000000000000000000000000000000000000000000000000000000000000000000000000000000000000000000000000000000000000000                          0000000000                                                                  000098
1            A008P6000002                      172000984                                                    020202171355456096                    1504170000000011388         A000000000000000000000000000000000000000000000000000000000000000000000000000000000000000000000000000000000000000000000                          0000000000                                                                  000099
1            A008P6000002                      172000992                                                    020202171355456096                    1505170000000011388         A000000000000000000000000000000000000000000000000000000000000000000000000000000000000000000000000000000000000000000000                          0000000000                                                                  000100
1            A008P6000002                      172001000                                                    020202171355456096                    1506170000000011388         A000000000000000000000000000000000000000000000000000000000000000000000000000000000000000000000000000000000000000000000                          0000000000                                                                  000101
1            A008P6000002                      172001018                                                    020202171355456096                    1507170000000011388         A000000000000000000000000000000000000000000000000000000000000000000000000000000000000000000000000000000000000000000000                          0000000000                                                                  000102
1            A008P6000002                      172001026                                                    020202171355456096                    1508170000000011388         A000000000000000000000000000000000000000000000000000000000000000000000000000000000000000000000000000000000000000000000                          0000000000                                                                  000103
1            A008P6000002                      172001034                                                    020202171355456096                    1509170000000011388         A000000000000000000000000000000000000000000000000000000000000000000000000000000000000000000000000000000000000000000000                          0000000000                                                                  000104
1            A008P6000002                      172001042                                                    020202171355456096                    1510170000000011388         A000000000000000000000000000000000000000000000000000000000000000000000000000000000000000000000000000000000000000000000                          0000000000                                                                  000105
1            A008P7000002                      172001050                                                    020202173037461063                    1502170000000011508         A000000000000000000000000000000000000000000000000000000000000000000000000000000000000000000000000000000000000000000000                          0000000000                                                                  000106
1            A008P7000002                      172001069                                                    020202173037461063                    1503170000000011508         A000000000000000000000000000000000000000000000000000000000000000000000000000000000000000000000000000000000000000000000                          0000000000                                                                  000107
1            A008P7000002                      172001077                                                    020202173037461063                    1504170000000011508         A000000000000000000000000000000000000000000000000000000000000000000000000000000000000000000000000000000000000000000000                          0000000000                                                                  000108
1            A008P7000002                      172001085                                                    020202173037461063                    1505170000000011508         A000000000000000000000000000000000000000000000000000000000000000000000000000000000000000000000000000000000000000000000                          0000000000                                                                  000109
1            A008P7000002                      172001093                                                    020202173037461063                    1506170000000011508         A000000000000000000000000000000000000000000000000000000000000000000000000000000000000000000000000000000000000000000000                          0000000000                                                                  000110
1            A008P7000002                      172001107                                                    020202173037461063                    1507170000000011508         A000000000000000000000000000000000000000000000000000000000000000000000000000000000000000000000000000000000000000000000                          0000000000                                                                  000111
1            A008P7000002                      172001115                                                    020202173037461063                    1508170000000011508         A000000000000000000000000000000000000000000000000000000000000000000000000000000000000000000000000000000000000000000000                          0000000000                                                                  000112
1            A008P7000002                      172001123                                                    020202173037461063                    1509170000000011508         A000000000000000000000000000000000000000000000000000000000000000000000000000000000000000000000000000000000000000000000                          0000000000                                                                  000113
1            A008P7000002                      172001131                                                    020202173037461063                    1510170000000011508         A000000000000000000000000000000000000000000000000000000000000000000000000000000000000000000000000000000000000000000000                          0000000000                                                                  000114
1            A008P8000002                      172001140                                                    020202170999224018                    1003170000000003588         A000000000000000000000000000000000000000000000000000000000000000000000000000000000000000000000000000000000000000000000                          0000000000                                                                  000115
1            A008P8000002                      172001158                                                    020202170999224018                    1004170000000003588         A000000000000000000000000000000000000000000000000000000000000000000000000000000000000000000000000000000000000000000000                          0000000000                                                                  000116
1            A008P8000002                      172001166                                                    020202170999224018                    1005170000000003588         A000000000000000000000000000000000000000000000000000000000000000000000000000000000000000000000000000000000000000000000                          0000000000                                                                  000117
1            A008P8000002                      172001174                                                    020202170999224018                    1006170000000003588         A000000000000000000000000000000000000000000000000000000000000000000000000000000000000000000000000000000000000000000000                          0000000000                                                                  000118
1            A008P8000002                      172001182                                                    020202170999224018                    1007170000000003588         A000000000000000000000000000000000000000000000000000000000000000000000000000000000000000000000000000000000000000000000                          0000000000                                                                  000119
1            A008P8000002                      172001190                                                    020202170999224018                    1008170000000003588         A000000000000000000000000000000000000000000000000000000000000000000000000000000000000000000000000000000000000000000000                          0000000000                                                                  000120
1            A008P8000002                      172001204                                                    020202170999224018                    1009170000000003588         A000000000000000000000000000000000000000000000000000000000000000000000000000000000000000000000000000000000000000000000                          0000000000                                                                  000121
1            A008P8000002                      172001212                                                    020202170999224018                    1010170000000003588         A000000000000000000000000000000000000000000000000000000000000000000000000000000000000000000000000000000000000000000000                          0000000000                                                                  000122
1            A008P8000002                      172001220                                                    020202170999224018                    1011170000000003588         A000000000000000000000000000000000000000000000000000000000000000000000000000000000000000000000000000000000000000000000                          0000000000                                                                  000123
1            A008P9000002                      172001239                                                    020202170111965055                    1003170000000014500         A000000000000000000000000000000000000000000000000000000000000000000000000000000000000000000000000000000000000000000000                          0000000000                                                                  000124
1            A008P9000002                      172001247                                                    020202170111965055                    1004170000000014500         A000000000000000000000000000000000000000000000000000000000000000000000000000000000000000000000000000000000000000000000                          0000000000                                                                  000125
1            A008P9000002                      172001255                                                    020202170111965055                    1005170000000014500         A000000000000000000000000000000000000000000000000000000000000000000000000000000000000000000000000000000000000000000000                          0000000000                                                                  000126
1            A008P9000002                      172001263                                                    020202170111965055                    1006170000000014500         A000000000000000000000000000000000000000000000000000000000000000000000000000000000000000000000000000000000000000000000                          0000000000                                                                  000127
1            A008P9000002                      172001271                                                    020202170111965055                    1007170000000014500         A000000000000000000000000000000000000000000000000000000000000000000000000000000000000000000000000000000000000000000000                          0000000000                                                                  000128
1            A008P9000002                      172001280                                                    020202170111965055                    1008170000000014500         A000000000000000000000000000000000000000000000000000000000000000000000000000000000000000000000000000000000000000000000                          0000000000                                                                  000129
1            A008P9000002                      172001298                                                    020202170111965055                    1003170000000015000         A000000000000000000000000000000000000000000000000000000000000000000000000000000000000000000000000000000000000000000000                          0000000000                                                                  000130
1            A008P9000002                      172001301                                                    020202170111965055                    1004170000000015000         A000000000000000000000000000000000000000000000000000000000000000000000000000000000000000000000000000000000000000000000                          0000000000                                                                  000131
1            A008P9000002                      172001310                                                    020202170111965055                    1005170000000015000         A000000000000000000000000000000000000000000000000000000000000000000000000000000000000000000000000000000000000000000000                          0000000000                                                                  000132
1            A008P9000002                      172001328                                                    020202170111965055                    1006170000000015000         A000000000000000000000000000000000000000000000000000000000000000000000000000000000000000000000000000000000000000000000                          0000000000                                                                  000133
1            A008P9000002                      172001336                                                    020202170111965055                    1007170000000015000         A000000000000000000000000000000000000000000000000000000000000000000000000000000000000000000000000000000000000000000000                          0000000000                                                                  000134
1            A008P9000002                      172001344                                                    020202170111965055                    1008170000000015000         A000000000000000000000000000000000000000000000000000000000000000000000000000000000000000000000000000000000000000000000                          0000000000                                                                  000135
1            A008P9000002                      172001352                                                    020202170111965055                    1009170000000015000         A000000000000000000000000000000000000000000000000000000000000000000000000000000000000000000000000000000000000000000000                          0000000000                                                                  000136
1            A008P9000002                      172001360                                                    020202170111965055                    1010170000000015000         A000000000000000000000000000000000000000000000000000000000000000000000000000000000000000000000000000000000000000000000                          0000000000                                                                  000137
1            A008PA000002                      172001379                                                    020202172519757035                    2002170000000018400         A000000000000000000000000000000000000000000000000000000000000000000000000000000000000000000000000000000000000000000000                          0000000000                                                                  000138
1            A008PA000002                      172001387                                                    020202172519757035                    2003170000000018400         A000000000000000000000000000000000000000000000000000000000000000000000000000000000000000000000000000000000000000000000                          0000000000                                                                  000139
1            A008PA000002                      172001395                                                    020202172519757035                    2004170000000018400         A000000000000000000000000000000000000000000000000000000000000000000000000000000000000000000000000000000000000000000000                          0000000000                                                                  000140
1            A008PA000002                      172001409                                                    020202172519757035                    2005170000000018400         A000000000000000000000000000000000000000000000000000000000000000000000000000000000000000000000000000000000000000000000                          0000000000                                                                  000141
1            A008PA000002                      172001417                                                    020202172519757035                    2006170000000018400         A000000000000000000000000000000000000000000000000000000000000000000000000000000000000000000000000000000000000000000000                          0000000000                                                                  000142
1            A008PB000002                      172001425                                                    020202173599125082                    1003170000000010600         A000000000000000000000000000000000000000000000000000000000000000000000000000000000000000000000000000000000000000000000                          0000000000                                                                  000143
1            A008PB000002                      172001433                                                    020202173599125082                    1004170000000010600         A000000000000000000000000000000000000000000000000000000000000000000000000000000000000000000000000000000000000000000000                          0000000000                                                                  000144
1            A008PB000002                      172001441                                                    020202173599125082                    1005170000000010600         A000000000000000000000000000000000000000000000000000000000000000000000000000000000000000000000000000000000000000000000                          0000000000                                                                  000145
1            A008PB000002                      172001450                                                    020202173599125082                    1006170000000010600         A000000000000000000000000000000000000000000000000000000000000000000000000000000000000000000000000000000000000000000000                          0000000000                                                                  000146
1            A008PB000002                      172001468                                                    020202173599125082                    1007170000000010600         A000000000000000000000000000000000000000000000000000000000000000000000000000000000000000000000000000000000000000000000                          0000000000                                                                  000147
1            A008PB000002                      172001476                                                    020202173599125082                    1008170000000010600         A000000000000000000000000000000000000000000000000000000000000000000000000000000000000000000000000000000000000000000000                          0000000000                                                                  000148
1            A008PB000002                      172001484                                                    020202173599125082                    1009170000000010600         A000000000000000000000000000000000000000000000000000000000000000000000000000000000000000000000000000000000000000000000                          0000000000                                                                  000149
1            A008PB000002                      172001492                                                    020202173599125082                    1010170000000010600         A000000000000000000000000000000000000000000000000000000000000000000000000000000000000000000000000000000000000000000000                          0000000000                                                                  000150
1            A008PB000002                      172001506                                                    020202173599125082                    1011170000000010600         A000000000000000000000000000000000000000000000000000000000000000000000000000000000000000000000000000000000000000000000                          0000000000                                                                  000151
1            A008PC000002                      172001514                                                    020202178931743068                    0503170000000011300         A000000000000000000000000000000000000000000000000000000000000000000000000000000000000000000000000000000000000000000000                          0000000000                                                                  000152
1            A008PC000002                      172001522                                                    020202178931743068                    0504170000000011300         A000000000000000000000000000000000000000000000000000000000000000000000000000000000000000000000000000000000000000000000                          0000000000                                                                  000153
1            A008PC000002                      172001530                                                    020202178931743068                    0505170000000011300         A000000000000000000000000000000000000000000000000000000000000000000000000000000000000000000000000000000000000000000000                          0000000000                                                                  000154
1            A008PC000002                      172001549                                                    020202178931743068                    0506170000000011300         A000000000000000000000000000000000000000000000000000000000000000000000000000000000000000000000000000000000000000000000                          0000000000                                                                  000155
1            A008PC000002                      172001557                                                    020202178931743068                    0507170000000011300         A000000000000000000000000000000000000000000000000000000000000000000000000000000000000000000000000000000000000000000000                          0000000000                                                                  000156
1            A008PC000002                      172001565                                                    020202178931743068                    0508170000000011300         A000000000000000000000000000000000000000000000000000000000000000000000000000000000000000000000000000000000000000000000                          0000000000                                                                  000157
1            A008PC000002                      172001573                                                    020202178931743068                    0509170000000011300         A000000000000000000000000000000000000000000000000000000000000000000000000000000000000000000000000000000000000000000000                          0000000000                                                                  000158
1            A008PC000002                      172001581                                                    020202178931743068                    0510170000000011300         A000000000000000000000000000000000000000000000000000000000000000000000000000000000000000000000000000000000000000000000                          0000000000                                                                  000159
1            A008PC000002                      172001590                                                    020202178931743068                    0511170000000011300         A000000000000000000000000000000000000000000000000000000000000000000000000000000000000000000000000000000000000000000000                          0000000000                                                                  000160
1            A008OW000002                      172001603                                                    020202172641542072                    1502170000000023000         A000000000000000000000000000000000000000000000000000000000000000000000000000000000000000000000000000000000000000000000                          0000000000                                                                  000161
1            A008OW000002                      172001611                                                    020202172641542072                    1503170000000023000         A000000000000000000000000000000000000000000000000000000000000000000000000000000000000000000000000000000000000000000000                          0000000000                                                                  000162
1            A008OW000002                      172001620                                                    020202172641542072                    1504170000000023000         A000000000000000000000000000000000000000000000000000000000000000000000000000000000000000000000000000000000000000000000                          0000000000                                                                  000163
1            A008OW000002                      172001638                                                    020202172641542072                    1505170000000023000         A000000000000000000000000000000000000000000000000000000000000000000000000000000000000000000000000000000000000000000000                          0000000000                                                                  000164
1            A008OW000002                      172001646                                                    020202172641542072                    1506170000000023000         A000000000000000000000000000000000000000000000000000000000000000000000000000000000000000000000000000000000000000000000                          0000000000                                                                  000165
1            A008OW000002                      172001654                                                    020202172641542072                    1507170000000023000         A000000000000000000000000000000000000000000000000000000000000000000000000000000000000000000000000000000000000000000000                          0000000000                                                                  000166
1            A008OW000002                      172001662                                                    020202172641542072                    1508170000000023000         A000000000000000000000000000000000000000000000000000000000000000000000000000000000000000000000000000000000000000000000                          0000000000                                                                  000167
1            A008OW000002                      172001670                                                    020202172641542072                    1509170000000023000         A000000000000000000000000000000000000000000000000000000000000000000000000000000000000000000000000000000000000000000000                          0000000000                                                                  000168
1            A008OW000002                      172001689                                                    020202172641542072                    1510170000000023000         A000000000000000000000000000000000000000000000000000000000000000000000000000000000000000000000000000000000000000000000                          0000000000                                                                  000169
1            A008PD000002                      172001697                                                    020202171782421955                    1102170000000006500         A000000000000000000000000000000000000000000000000000000000000000000000000000000000000000000000000000000000000000000000                          0000000000                                                                  000170
1            A008PD000002                      172001700                                                    020202171782421955                    1103170000000006500         A000000000000000000000000000000000000000000000000000000000000000000000000000000000000000000000000000000000000000000000                          0000000000                                                                  000171
1            A008PD000002                      172001719                                                    020202171782421955                    1104170000000006500         A000000000000000000000000000000000000000000000000000000000000000000000000000000000000000000000000000000000000000000000                          0000000000                                                                  000172
1            A008PD000002                      172001727                                                    020202171782421955                    1105170000000006500         A000000000000000000000000000000000000000000000000000000000000000000000000000000000000000000000000000000000000000000000                          0000000000                                                                  000173
1            A008PD000002                      172001735                                                    020202171782421955                    1106170000000006500         A000000000000000000000000000000000000000000000000000000000000000000000000000000000000000000000000000000000000000000000                          0000000000                                                                  000174
1            A008PD000002                      172001743                                                    020202171782421955                    1107170000000006500         A000000000000000000000000000000000000000000000000000000000000000000000000000000000000000000000000000000000000000000000                          0000000000                                                                  000175
1            A008PD000002                      172001751                                                    020202171782421955                    1108170000000006500         A000000000000000000000000000000000000000000000000000000000000000000000000000000000000000000000000000000000000000000000                          0000000000                                                                  000176
1            A008PD000002                      172001760                                                    020202171782421955                    1109170000000006500         A000000000000000000000000000000000000000000000000000000000000000000000000000000000000000000000000000000000000000000000                          0000000000                                                                  000177
1            A008PD000002                      172001778                                                    020202171782421955                    1110170000000006500         A000000000000000000000000000000000000000000000000000000000000000000000000000000000000000000000000000000000000000000000                          0000000000                                                                  000178
1            A008PE000002                      172001786                                                    020202178988130049                    1202170000000027400         A000000000000000000000000000000000000000000000000000000000000000000000000000000000000000000000000000000000000000000000                          0000000000                                                                  000179
1            A008PF000002                      172001794                                                    020202170471104060                    1302170000000015936         A000000000000000000000000000000000000000000000000000000000000000000000000000000000000000000000000000000000000000000000                          0000000000                                                                  000180
1            A008PF000002                      172001808                                                    020202170471104060                    1303170000000015936         A000000000000000000000000000000000000000000000000000000000000000000000000000000000000000000000000000000000000000000000                          0000000000                                                                  000181
1            A008PF000002                      172001816                                                    020202170471104060                    1304170000000015936         A000000000000000000000000000000000000000000000000000000000000000000000000000000000000000000000000000000000000000000000                          0000000000                                                                  000182
1            A008PF000002                      172001824                                                    020202170471104060                    1305170000000015936         A000000000000000000000000000000000000000000000000000000000000000000000000000000000000000000000000000000000000000000000                          0000000000                                                                  000183
1            A008PF000002                      172001832                                                    020202170471104060                    1306170000000015936         A000000000000000000000000000000000000000000000000000000000000000000000000000000000000000000000000000000000000000000000                          0000000000                                                                  000184
1            A008PF000002                      172001840                                                    020202170471104060                    1307170000000015936         A000000000000000000000000000000000000000000000000000000000000000000000000000000000000000000000000000000000000000000000                          0000000000                                                                  000185
1            A008PF000002                      172001859                                                    020202170471104060                    1308170000000015936         A000000000000000000000000000000000000000000000000000000000000000000000000000000000000000000000000000000000000000000000                          0000000000                                                                  000186
1            A008PF000002                      172001867                                                    020202170471104060                    1309170000000015936         A000000000000000000000000000000000000000000000000000000000000000000000000000000000000000000000000000000000000000000000                          0000000000                                                                  000187
1            A008PF000002                      172001875                                                    020202170471104060                    1310170000000015936         A000000000000000000000000000000000000000000000000000000000000000000000000000000000000000000000000000000000000000000000                          0000000000                                                                  000188
1            A008PF000002                      172001883                                                    020202170471104060                    1311170000000015936         A000000000000000000000000000000000000000000000000000000000000000000000000000000000000000000000000000000000000000000000                          0000000000                                                                  000189
1            A008PG000002                      172001891                                                    020202170836601009                    1502170000000013700         A000000000000000000000000000000000000000000000000000000000000000000000000000000000000000000000000000000000000000000000                          0000000000                                                                  000190
1            A008PG000002                      172001905                                                    020202170836601009                    1503170000000013700         A000000000000000000000000000000000000000000000000000000000000000000000000000000000000000000000000000000000000000000000                          0000000000                                                                  000191
1            A008PG000002                      172001913                                                    020202170836601009                    1504170000000013700         A000000000000000000000000000000000000000000000000000000000000000000000000000000000000000000000000000000000000000000000                          0000000000                                                                  000192
1            A008PG000002                      172001921                                                    020202170836601009                    1505170000000013700         A000000000000000000000000000000000000000000000000000000000000000000000000000000000000000000000000000000000000000000000                          0000000000                                                                  000193
1            A008PG000002                      172001930                                                    020202170836601009                    1506170000000013700         A000000000000000000000000000000000000000000000000000000000000000000000000000000000000000000000000000000000000000000000                          0000000000                                                                  000194
1            A008PG000002                      172001948                                                    020202170836601009                    1507170000000013700         A000000000000000000000000000000000000000000000000000000000000000000000000000000000000000000000000000000000000000000000                          0000000000                                                                  000195
1            A008PG000002                      172001956                                                    020202170836601009                    1508170000000013700         A000000000000000000000000000000000000000000000000000000000000000000000000000000000000000000000000000000000000000000000                          0000000000                                                                  000196
1            A008PG000002                      172001964                                                    020202170836601009                    1509170000000013700         A000000000000000000000000000000000000000000000000000000000000000000000000000000000000000000000000000000000000000000000                          0000000000                                                                  000197
1            A008PG000002                      172001972                                                    020202170836601009                    1510170000000013700         A000000000000000000000000000000000000000000000000000000000000000000000000000000000000000000000000000000000000000000000                          0000000000                                                                  000198
1            A008OT000002                      172001980                                                    020202171072022044                    2502170000000008636         A000000000000000000000000000000000000000000000000000000000000000000000000000000000000000000000000000000000000000000000                          0000000000                                                                  000199
1            A008OT000002                      172001999                                                    020202171072022044                    2503170000000008633         A000000000000000000000000000000000000000000000000000000000000000000000000000000000000000000000000000000000000000000000                          0000000000                                                                  000200
1            A008OT000002                      172002006                                                    020202171072022044                    2504170000000008633         A000000000000000000000000000000000000000000000000000000000000000000000000000000000000000000000000000000000000000000000                          0000000000                                                                  000201
1            A008OT000002                      172002014                                                    020202171072022044                    2505170000000008633         A000000000000000000000000000000000000000000000000000000000000000000000000000000000000000000000000000000000000000000000                          0000000000                                                                  000202
1            A008OT000002                      172002022                                                    020202171072022044                    2506170000000008633         A000000000000000000000000000000000000000000000000000000000000000000000000000000000000000000000000000000000000000000000                          0000000000                                                                  000203
1            A008OT000002                      172002030                                                    020202171072022044                    2507170000000008633         A000000000000000000000000000000000000000000000000000000000000000000000000000000000000000000000000000000000000000000000                          0000000000                                                                  000204
1            A008OT000002                      172002049                                                    020202171072022044                    2508170000000008633         A000000000000000000000000000000000000000000000000000000000000000000000000000000000000000000000000000000000000000000000                          0000000000                                                                  000205
1            A008OT000002                      172002057                                                    020202171072022044                    2509170000000008633         A000000000000000000000000000000000000000000000000000000000000000000000000000000000000000000000000000000000000000000000                          0000000000                                                                  000206
1            A008OT000002                      172002065                                                    020202171072022044                    2510170000000008633         A000000000000000000000000000000000000000000000000000000000000000000000000000000000000000000000000000000000000000000000                          0000000000                                                                  000207
1            A008PH000002                      172002073                                                    020202171539470040                    1702170000000018300         A000000000000000000000000000000000000000000000000000000000000000000000000000000000000000000000000000000000000000000000                          0000000000                                                                  000208
1            A008PH000002                      172002081                                                    020202171539470040                    1703170000000018300         A000000000000000000000000000000000000000000000000000000000000000000000000000000000000000000000000000000000000000000000                          0000000000                                                                  000209
1            A008PH000002                      172002090                                                    020202171539470040                    1704170000000018300         A000000000000000000000000000000000000000000000000000000000000000000000000000000000000000000000000000000000000000000000                          0000000000                                                                  000210
1            A008PH000002                      172002103                                                    020202171539470040                    1705170000000018300         A000000000000000000000000000000000000000000000000000000000000000000000000000000000000000000000000000000000000000000000                          0000000000                                                                  000211
1            A008PH000002                      172002111                                                    020202171539470040                    1706170000000018300         A000000000000000000000000000000000000000000000000000000000000000000000000000000000000000000000000000000000000000000000                          0000000000                                                                  000212
1            A008PH000002                      172002120                                                    020202171539470040                    1707170000000018300         A000000000000000000000000000000000000000000000000000000000000000000000000000000000000000000000000000000000000000000000                          0000000000                                                                  000213
1            A008PH000002                      172002138                                                    020202171539470040                    1708170000000018300         A000000000000000000000000000000000000000000000000000000000000000000000000000000000000000000000000000000000000000000000                          0000000000                                                                  000214
1            A008PH000002                      172002146                                                    020202171539470040                    1709170000000018300         A000000000000000000000000000000000000000000000000000000000000000000000000000000000000000000000000000000000000000000000                          0000000000                                                                  000215
1            A008PH000002                      172002154                                                    020202171539470040                    1710170000000018300         A000000000000000000000000000000000000000000000000000000000000000000000000000000000000000000000000000000000000000000000                          0000000000                                                                  000216
1            A008PI000002                      172002162                                                    020202172607580005                    2002170000000021900         A000000000000000000000000000000000000000000000000000000000000000000000000000000000000000000000000000000000000000000000                          0000000000                                                                  000217
1            A008PJ000002                      172002170                                                    020202171621471047                    1003170000000025966         A000000000000000000000000000000000000000000000000000000000000000000000000000000000000000000000000000000000000000000000                          0000000000                                                                  000218
1            A008PK000002                      172002189                                                    020202177815640087                    2002170000000014158         A000000000000000000000000000000000000000000000000000000000000000000000000000000000000000000000000000000000000000000000                          0000000000                                                                  000219
1            A008PK000002                      172002197                                                    020202177815640087                    2003170000000014158         A000000000000000000000000000000000000000000000000000000000000000000000000000000000000000000000000000000000000000000000                          0000000000                                                                  000220
1            A008PK000002                      172002200                                                    020202177815640087                    2004170000000014158         A000000000000000000000000000000000000000000000000000000000000000000000000000000000000000000000000000000000000000000000                          0000000000                                                                  000221
1            A008PK000002                      172002219                                                    020202177815640087                    2005170000000014158         A000000000000000000000000000000000000000000000000000000000000000000000000000000000000000000000000000000000000000000000                          0000000000                                                                  000222
1            A008PK000002                      172002227                                                    020202177815640087                    2006170000000014158         A000000000000000000000000000000000000000000000000000000000000000000000000000000000000000000000000000000000000000000000                          0000000000                                                                  000223
1            A008PK000002                      172002235                                                    020202177815640087                    2007170000000014158         A000000000000000000000000000000000000000000000000000000000000000000000000000000000000000000000000000000000000000000000                          0000000000                                                                  000224
1            A008PK000002                      172002243                                                    020202177815640087                    2008170000000014158         A000000000000000000000000000000000000000000000000000000000000000000000000000000000000000000000000000000000000000000000                          0000000000                                                                  000225
1            A008PK000002                      172002251                                                    020202177815640087                    2009170000000014158         A000000000000000000000000000000000000000000000000000000000000000000000000000000000000000000000000000000000000000000000                          0000000000                                                                  000226
1            A008PK000002                      172002260                                                    020202177815640087                    2010170000000014158         A000000000000000000000000000000000000000000000000000000000000000000000000000000000000000000000000000000000000000000000                          0000000000                                                                  000227
1            A008PK000002                      172002278                                                    020202177815640087                    1003170000000014158         A000000000000000000000000000000000000000000000000000000000000000000000000000000000000000000000000000000000000000000000                          0000000000                                                                  000228
1            A008PK000002                      172002286                                                    020202177815640087                    1004170000000014158         A000000000000000000000000000000000000000000000000000000000000000000000000000000000000000000000000000000000000000000000                          0000000000                                                                  000229
1            A008PK000002                      172002294                                                    020202177815640087                    1005170000000014158         A000000000000000000000000000000000000000000000000000000000000000000000000000000000000000000000000000000000000000000000                          0000000000                                                                  000230
1            A00000000002                      172002308                                                    030202177815640087                    1006170000000014158         A000000000000000000000000000000000000000000000000000000000000000000000000000000000000000000000000000000000000000000000                          C600000000                                                                  000231
1            A008PK000002                      172002316                                                    020202177815640087                    1007170000000014158         A000000000000000000000000000000000000000000000000000000000000000000000000000000000000000000000000000000000000000000000                          0000000000                                                                  000232
1            A008PK000002                      172002324                                                    020202177815640087                    1008170000000014158         A000000000000000000000000000000000000000000000000000000000000000000000000000000000000000000000000000000000000000000000                          0000000000                                                                  000233
1            A008PK000002                      172002332                                                    020202177815640087                    1009170000000014158         A000000000000000000000000000000000000000000000000000000000000000000000000000000000000000000000000000000000000000000000                          0000000000                                                                  000234
1            A008PK000002                      172002340                                                    020202177815640087                    1010170000000014158         A000000000000000000000000000000000000000000000000000000000000000000000000000000000000000000000000000000000000000000000                          0000000000                                                                  000235
1            A008PK000002                      172002359                                                    020202177815640087                    1011170000000014158         A000000000000000000000000000000000000000000000000000000000000000000000000000000000000000000000000000000000000000000000                          0000000000                                                                  000236
1            A008PL000002                      172002367                                                    020202170119667053                    2002170000000009200         A000000000000000000000000000000000000000000000000000000000000000000000000000000000000000000000000000000000000000000000                          0000000000                                                                  000237
1            A008PL000002                      172002375                                                    020202170119667053                    2003170000000009200         A000000000000000000000000000000000000000000000000000000000000000000000000000000000000000000000000000000000000000000000                          0000000000                                                                  000238
1            A008PL000002                      172002383                                                    020202170119667053                    2004170000000009200         A000000000000000000000000000000000000000000000000000000000000000000000000000000000000000000000000000000000000000000000                          0000000000                                                                  000239
1            A008PL000002                      172002391                                                    020202170119667053                    2005170000000009200         A000000000000000000000000000000000000000000000000000000000000000000000000000000000000000000000000000000000000000000000                          0000000000                                                                  000240
1            A008PL000002                      172002405                                                    020202170119667053                    2006170000000009200         A000000000000000000000000000000000000000000000000000000000000000000000000000000000000000000000000000000000000000000000                          0000000000                                                                  000241
1            A008PM000002                      172002413                                                    020202171862568090                    2102170000000048950         A000000000000000000000000000000000000000000000000000000000000000000000000000000000000000000000000000000000000000000000                          0000000000                                                                  000242
1            A008PN000002                      172002421                                                    020202172859370064                    2302170000000020878         A000000000000000000000000000000000000000000000000000000000000000000000000000000000000000000000000000000000000000000000                          0000000000                                                                  000243
1            A008PN000002                      172002430                                                    020202172859370064                    2303170000000020878         A000000000000000000000000000000000000000000000000000000000000000000000000000000000000000000000000000000000000000000000                          0000000000                                                                  000244
1            A008PN000002                      172002448                                                    020202172859370064                    2304170000000020878         A000000000000000000000000000000000000000000000000000000000000000000000000000000000000000000000000000000000000000000000                          0000000000                                                                  000245
1            A008PN000002                      172002456                                                    020202172859370064                    2305170000000020878         A000000000000000000000000000000000000000000000000000000000000000000000000000000000000000000000000000000000000000000000                          0000000000                                                                  000246
1            A008PO000002                      172002464                                                    020202170718081919                    2602170000000011000         A000000000000000000000000000000000000000000000000000000000000000000000000000000000000000000000000000000000000000000000                          0000000000                                                                  000247
1            A008PO000002                      172002472                                                    020202170718081919                    2603170000000011000         A000000000000000000000000000000000000000000000000000000000000000000000000000000000000000000000000000000000000000000000                          0000000000                                                                  000248
1            A008PO000002                      172002480                                                    020202170718081919                    2604170000000011000         A000000000000000000000000000000000000000000000000000000000000000000000000000000000000000000000000000000000000000000000                          0000000000                                                                  000249
